:020000040800F2
:1000000000040020470100083F0C0008A50B000871
:100010003D0C0008C50800088D1200080000000013
:10002000000000000000000000000000250E000895
:100030008509000800000000410C0008810F00083D
:1000400067010008670100086701000867010008F0
:1000500067010008670100086701000867010008E0
:1000600067010008670100086701000867010008D0
:1000700067010008670100086701000867010008C0
:1000800067010008670100086701000867010008B0
:1000900067010008670100086701000867010008A0
:1000A0006701000867010008670100086701000890
:1000B0006701000867010008670100086701000880
:1000C0006701000867010008670100086701000870
:1000D0006701000867010008670100086701000860
:1000E0006701000867010008670100086701000850
:1000F0006701000867010008670100086701000840
:10010000670100086701000867010008670100082F
:10011000670100086701000867010008670100081F
:10012000670100086701000867010008670100080F
:10013000DFF80CD000F0BCF9004800470D1C0008A7
:10014000A8390020704708488047084981F308888B
:1001500007480047FEE7FEE7FEE7FEE7FEE7FEE7AB
:10016000FEE7FEE7FEE7FEE745010008A8390020AC
:100170003101000840EA01039B0703D009E008C9E8
:10018000121F08C0042AFAD203E011F8013B00F85C
:10019000013B521EF9D27047D2B201E000F8012BA8
:1001A000491EFBD270470022F6E710B50446084608
:1001B000114602462046FFF7EFFF204610BD0346DA
:1001C00000E0401C0278002AFBD111F8012B00F856
:1001D000012B002AF9D11846704710B5044604E0F7
:1001E0000B7800F8013B03B1491C521EF8D220469F
:1001F00010BD0146002000E0401C0A5C002AFBD133
:100200007047034611F8012B00F8012B002AF9D1A1
:10021000184670470FB400B589B00BA800906A4625
:1002200003480A9900F03AF909B05DF814FB0000A0
:100230009C0000202DE9FF5FD2E901B800279169F9
:1002400014469946DDF838A03E4601988847054691
:1002500059EA0A0005D009E0A169761C019888478F
:100260000546216A284688470028F5D1681C03D036
:100270005FEACB7005D015E04FF0FF3004B0BDE869
:10028000F09F2068011D216007680BE05FEACB70DA
:1002900001D107F8015BA169A8F10108761C01985A
:1002A00088470546B8F1000F1ADD681C18D0B9F16F
:1002B000000F0DD0E81705EBD060421120F01F00B1
:1002C00059F822102A1A012090400142DED107E09D
:1002D000BAF1000FDAD1216A284688470028D5D024
:1002E000E169019888470BF0010050EA0A0000D14B
:1002F0003870A2686FF001004245BFDDBAF1000F0F
:1003000002D0B8F1000FB9D13046B7E72DE9F05F60
:100310000F46934680460446002600F0C9FFD0F8F9
:100320000090824614F8015B2DB100F05BF8006884
:10033000405DC007F6D12B2D02D02D2D1CD0641EA0
:100340000021CAF800105A463946204600F057F8F6
:10035000014627B13868A04201D1C7F80080DAF819
:100360000000022805D0CAF80090C1F10000720513
:1003700000D40846BDE8F09F46F48066E0E72DE92A
:10038000F05F0546002092469B4688460646814619
:1003900040241DE0284641464746224600F0BFF86B
:1003A000B0EB0A0052465B4671EB0B0110D31046CE
:1003B0001946224600F0A4F82D1A67EB01084F46B3
:1003C00022460120002100F09BF817EB00094E4166
:1003D000201EA4F10104DDDC484631462A4643468E
:1003E000BDE8F09F004870477045000810B504460E
:1003F000FFF7F8FF0068005D00F0010010BD2DE977
:10040000F05F8246044600780027641C8B46154640
:10041000B946302801D09DB113E014F8010B012733
:10042000782803D0582801D045B10AE00DB1102D2D
:1004300007D10027102514F8010B02E0082500E081
:100440000A250026B0460EE005FB080005FB06F174
:10045000012701EB10461FFA80F8B6F5803F00D364
:10046000B94614F8010B294600F069F80028EBDAC8
:10047000BBF1000F04D0641E07B95446CBF800400E
:10048000B9F1000F06D000F013FF02210160C81E71
:10049000BDE8F09F48EA0640FAE70000024B93618E
:1004A000024BD36100F062B8BD1A0008F1040008E5
:1004B000064C074D06E0E06840F0010394E80700B1
:1004C00098471034AC42F6D3FFF736FE7445000867
:1004D00094450008094910B508784C1C18B1401E15
:1004E0000870205C10BD00210720ABBE207010BD3D
:1004F00002490878421C0A7070470000A8000020DA
:10050000202A04DB203A00FA02F1002070479140D3
:10051000C2F1200320FA03F3194390407047202AC8
:1005200004DB203A21FA02F00021704721FA02F39D
:10053000D040C2F1200291400843194670473A2842
:1005400000D2303820F02002412A01D3A2F1370036
:100550004FF0FF32884200D202461046704700003A
:100560000268114413780160184670470B46114623
:10057000044A4A61044A0A620022C1E9033200F0D7
:1005800005B8000061050008ED0300082DE9F34FF0
:100590008BB0012081460A904FF0000801F10C0059
:1005A0000C4646460DF1080A019062690121019846
:1005B000904705002DD0252D2CD0216A8847C0B149
:1005C0006269012101989047216A88470028F7D184
:1005D000411E62690198904700E0761CA1690B9862
:1005E0008847216A88470028F7D1E1690B98884736
:1005F000DBE7A1690B9888470746A84201D1761C22
:10060000D3E7E1690B9888477F1C02D1B8F1000F4E
:1006100072D016E1002762693D463946019890473D
:100620002A2804D162690121019890470125DFF849
:1006300090B26269012101989047A0F130020A2A24
:100640000DD2B9F1000F0AD05F45E2DC07EB87015C
:1006500000EB4107303FDCD445F01005E9E7E9063F
:1006600001D46FF000476C280AD04C2814D06828B9
:1006700015D06A280DD074281CD07A281AD01DE015
:1006800062690121019890476C2802D045F0040569
:1006900014E045F002050DE045F020050AE062692E
:1006A000012101989047682802D045F0080505E02F
:1006B00045F400656269012101989047C4E901573A
:1006C000652842D019DC58287ED00CDC45283CD067
:1006D00004DC252826D0412831D136E0462834D004
:1006E00047282CD131E05B287BD061282DD06328AE
:1006F00077D0642823D15EE022E06F284CD008DC5C
:10070000662822D0672820D0692826D06E2816D1E6
:100710002CE0702849D073286CD075284BD07828ED
:100720000DD151E0A1690B988847054625283FF473
:1007300066AFE1690B9888476D1C3FF467AF80E0B6
:100740004FF0FF300DB0BDE8F08F23466A466FF0E2
:1007500001000B99AFF300809EE045F0400060601F
:10076000A80723464FF0000235D43DE0206800F191
:10077000040121600068290501D5067015E72907E5
:1007800001D5068011E7A90704D54FEAE671C0E953
:1007900000610AE7066008E745F040006060A807CE
:1007A00023464FF0080216D41EE040F60E0125EA5B
:1007B0000100606016E045F040006060A807234635
:1007C0004FF00A0207D40FE045F040006060A80730
:1007D00008D5234610226FF001000B99AFF300807B
:1007E0005AE007E0234610226FF001000B99AFF3A7
:1007F000008051E00027BB463946632802D05B28C1
:1008000007D040E0E80601D4C4F808904FF0010B8F
:1008100039E062690121019890475E2804D10127DF
:100820006269394601989047216931B900235246DF
:1008300042F82130491C0829FADB10B1216911B1B5
:100840000FE040467EE7C11700EBD1635A110AEB77
:10085000820123F01F03C31A0A6809FA03F0024356
:100860000A6062690121019890475D28E5D14FB186
:100870000020514651F82020D24341F82020401C4E
:100880000828F7DB02A90B462246CDF800B06FF02E
:1008900001000B99FFF7CEFC002808DA4FF0FF317A
:1008A000401C01D10A9800B9414608464AE7E907C9
:1008B00001D108F10108064400200A9075E6000005
:1008C000CCCCCC0CFEE7000008B50121080200F0FA
:1008D00045FA012140F2E11000F04CFA4CF233707D
:1008E000ADF8000003208DF8020018208DF80300F9
:1008F00069460D4800F0F8F84FF6F870ADF80000C2
:1009000069460A4800F0F0F80420ADF80000694696
:10091000074800F0E9F84FF48050ADF80000694650
:10092000044800F0E1F808BD00140140001801403F
:10093000001C01400020014000B595B000200421BA
:100940000E90CDE90F0106211490CDE90010119011
:10095000129010211390CDE9020104900590090234
:100960000690CDE9070109900A900B900EA80C9013
:100970000D90684600F05AF80121062000F046F874
:1009800015B000BD7047000070B505464FF48051AA
:10099000001DFFF708FC0848064C01682288281D46
:1009A000FFF7E8FB218805A000F072FC0020208002
:1009B00070BD000050000020600000200A0A0D45B4
:1009C000746865726E657420636F6E6E65637469BA
:1009D0006F6E20527862797465733A25640A0D004F
:1009E00010B507490A6802C849890E31C2E90401F5
:1009F00004A000F04DFCBDE8104002F0CFBC0000A8
:100A00006C00002054783A25640900004FF0204221
:100A100002EB80000029016802D041F0010101E0F1
:100A2000014A114001607047FEFF0F00F0B5D0E9A8
:100A30000324D0E90113224319431143D0E90532BD
:100A400019431143D0E9073219431143D0E9093260
:100A500019431143C36A04684FF02042194342F816
:100A600024108168082906D1016802EB81010B6816
:100A700043F040030B60016BD1E901431D020B6899
:100A8000D1E9036743EA041345EA06452B43D1E95C
:100A9000054543EA075343EA04610368294302EB2F
:100AA00083035960816AB1F5804F07D000686FF009
:100AB000704102EB8000C0F80411F0BD416BD1E938
:100AC00001431D020B68D1E9046743EA041345EAB8
:100AD000065400688969234343EA076302EB8000F8
:100AE0000B43C0F80431F0BD2DE9F041CA78002570
:100AF000D30602F00F0201D58B781A430B884FF012
:100B00000F084FF0010C13F0FF0F1CD0D0F800407D
:100B10000E880CFA05F31E409E4210D1AF0008FA71
:100B200007F624EA060602FA07F43443CE78282EA4
:100B300002D0482E02D002E0436100E003616D1C48
:100B4000082DE5D304600B88FF2B1DD944680025D0
:100B500005F108060CFA06F30E881E409E420FD1DE
:100B6000AF0008FA07F624EA060602FA07F434434F
:100B7000CE78282E00D14361CE78482E00D1036173
:100B80006D1C082DE4D34460BDE8F081012080F3A2
:100B9000108803484068002181F3108870470000E6
:100BA00028000020FEE7000010B500F019FE01F05B
:100BB000DBFF02F0D7FD09494AF6C00040F61432C7
:100BC00008804A8006494FF48A7208804A800548A6
:100BD0004FF6FF72FF210280418010BD5A000020B5
:100BE000780000207C0000202DE9F04106460F46E9
:100BF00015464FF48051001DFFF7D5FAB41DAA2009
:100C00003460B071F07130727072B072F072307323
:100C1000AB2070730320B0734FF20100708206485E
:100C2000606147F00100208305F108001035206164
:100C300065810120BDE8F081677E4E0BFEE77047BD
:100C40007047000070B505460C460EA000F020FB72
:100C500029461CA000F01CFB214620A000F018FB38
:100C600024A000F015FB2CA000F012FB2CA000F03B
:100C70000FFB31A000F00CFBBDE8704001A000F0BC
:100C800007BB00002A2A2A2A2A2A2A2A2A2A2A2AAA
:100C90002A2A2A2A2A2A2A2A2A2A2A2A2A2A2A2AB4
:100CA0002A2A2A2A2A2A2A2A2A2A2A2A2A2A2A2AA4
:100CB0002A2A2A2A2A2A2A2A2A2A2A2A2A2A2A2A94
:100CC0002A0A0D002A2050726F6772616D204E61F2
:100CD0006D65203A2025730D0A0000002A2055700A
:100CE00064617465204461746520203A2025730D89
:100CF0000A0000002A205374645065726970685FAE
:100D00004C69622056657273696F6E203A205633C3
:100D10002E312E320A0D00002A200A0D000000009C
:100D20002A20436F707972696768743A2020474CB3
:100D300045584552200D0A002A20456D61696C20F6
:100D40003A2070656E676A756E66656E6740676C9F
:100D5000657865722E636F6D200D0A00044A0029C4
:100D6000516901D0014300E08143516170470000A7
:100D700000100240044A0029916901D0014300E0BB
:100D8000814391617047000000100240214910B575
:100D90004B68214A13F00C0303D0042B01D0082B1D
:100DA00026D002604A681D4B02F0F00212099C5CDA
:100DB0000268E24042604C6804F4E064240A1C5D6E
:100DC00022FA04F484604C6804F460544FEAD4249A
:100DD0001B5D22FA03F2C2604968104B01F44041E6
:100DE0004FEA91311B1F595CB2FBF1F1016110BD5B
:100DF0004A684B68022402F4701204EB924213F426
:100E0000803F02D04B689B0301D5054B00E0024BAD
:100E10005A43C6E70010024000127A003400002056
:100E200000093D007047000010B501F09DFE02F082
:100E300099FC09494AF6C00040F6143208804A80FD
:100E400006494FF48A7208804A8005484FF6FF72BF
:100E5000FF210280418010BD5A0000207800002050
:100E60007C00002010B501F07FFE02F07BFC0949F8
:100E70004AF6C00040F6144208804A8006494FF402
:100E80008A7208804A8005484FF6FF72FF2102806F
:100E9000418010BD5A000020780000207C00002016
:100EA00022480021026842F4803202604FF4A063BD
:100EB0000268491C12F4003F01D19942F8D101683F
:100EC000890331D51A490A6842F010020A600A689B
:100ED00022F003020A600A6842F002020A604168D6
:100EE000416041684160416841F48061416041680E
:100EF00021F47C114160416841F4E81141600168CE
:100F000041F08071016001688901FCD5416821F0E0
:100F100003014160416841F0020141604168C1F351
:100F200081010229FAD17047FEE70000001002405B
:100F300000200240F8B500270C4606460097FFF750
:100F400058F9050016D03078F9078DF800004FF0F9
:100F500010024FF0000168460DD0FFF7D7F9217855
:100F6000C0F30300084304F8010B761C6D1E07F163
:100F70000107E8D1F8BDFFF7C9F900012070F4E7D7
:100F8000AFF3008010B50020114A012302EBC0012D
:100F90000C7934B90C6824B10C68641E0C6000D163
:100FA0000B71401CC0B20428F0D30A480178491CD8
:100FB000C9B201700A2909D3002101704268521C8C
:100FC00042604268B2F1004F00D1416010BD0000A4
:100FD00010010020280000200C48016841F00101A8
:100FE000016041680A4A114041600168094A1140A4
:100FF0000160016821F480210160416821F4FE0153
:1010000041604FF41F018160FFF74ABF00100240AA
:101010000000FFF8FFFFF6FEC9430180704700297A
:10102000818902D041F4005101E021F40051818115
:101030007047000010B586B001210520FFF79AFE29
:1010400001218803FFF796FE4FF40070ADF8100001
:1010500018208DF813000320194C8DF8120004A9F4
:101060002046FFF741FD2015ADF8100004208DF853
:10107000130004A92046FFF737FD04A92046FFF717
:1010800033FD4FF4E13000900020ADF80400ADF8DE
:101090000600ADF80800ADF80C000C20094CADF8C6
:1010A0000A006946204600F017F801212046FFF7A4
:1010B000B6FF40212046FFF7AFFF06B010BD00008D
:1010C00000080140003801400246002012880A4210
:1010D00000D001207047000030B50446008A85B07A
:1010E0000D464CF6FF710840E98801432182A18931
:1010F0004EF6F3100140A8882A8910436A890A43F2
:101100001043A081A08A4FF6FF410840A9890143FE
:10111000A1826846FFF73AFE1148844201D1039844
:1011200000E00298642200EBC00101EB0010296886
:101130006FF018038900B0FBF1F0B0FBF2F1090188
:101140000D095D43322300EB850003EB0010B0FB7B
:10115000F2F000F00F000843208105B030BD000020
:10116000003801408088C0F308007047C1F30801CF
:10117000818070472DE9F0413D48017859B901213E
:1011800001703221183001F015FD39484FF47A71A1
:10119000203001F00FFD01F0E9FC364C208000B357
:1011A0004FF4006000F01EFD334DA989884208D13C
:1011B000012002F02DFB2088002857D002F0A4F96E
:1011C0000BE040F6060000F00DFDA98988424DD1E4
:1011D00002F034F92088002848D0BDE8F04101F041
:1011E000CDBC2348183001F0D3FC00283ED0204865
:1011F000183001F0DAFC214E214F002505EB4500A7
:10120000C0EB451006EB80003860022002F000FBC6
:10121000208818B102F078F901F0B0FC6D1CEDB235
:10122000282DEBD3174E184F002500BF05EB4500C6
:1012300006EBC0003860052002F0EAFA208818B1F9
:1012400002F062F901F09AFC6D1CEDB20A2DEDD3AB
:101250000748203001F09CFC002807D004482030CB
:1012600001F0A3FCBDE8F04102F0FCB9BDE8F0815B
:101270000000002050000020A8010020AC11002038
:10128000680000201C2400206C000020FEE7000005
:101290000FB4054B10B503A9044A029800F01CF8DE
:1012A00010BC5DF814FB0000DD1A0008A00000204F
:1012B00000487047A400002002E008C8121F08C1BF
:1012C000002AFAD170477047002001E001C1121FC7
:1012D000002AFBD1704700002DE9FF4F8DB0054675
:1012E0000F460026EEE1252879D100246D1CF94A2D
:1012F000A246A14601212B78203B01FA03F01042BF
:1013000002D004436D1CF6E728782A2810D06FF02D
:101310002F022878A0F13001092915D80AEB8A019B
:1013200002EB410144F0020400EB010A6D1CF0E7FE
:1013300057F804ABBAF1000F03DA44F40054CAF1D1
:10134000000A44F002046D1C28782E2817D115F8E5
:10135000010F44F004042A280ED06FF02F022878E1
:10136000A0F1300109290AD809EB890102EB4101FA
:1013700000EB01096D1CF2E757F8049B6D1C2878FF
:101380006C280FD006DC4C2817D068280DD06A28AE
:1013900014D104E0742810D07A280FD10DE044F461
:1013A00000140AE044F4801401E044F44014697825
:1013B000814202D16D1C04F580146D1C95F800C0AB
:1013C000BCF16E0F2AD012DCBCF1630F3CD007DCFD
:1013D000BCF1000F76D0BCF1580F19D1ACE018E089
:1013E000BCF1640F6FD0BCF1690F11D16BE0BCF19F
:1013F000730F32D006DCBCF16F0F71D0BCF1700FEF
:1014000006D19BE0BCF1750F6BD0BCF1780F69D0B1
:101410006046DDE90F129047761C52E1C4F302509A
:10142000022806D003280AD0042801CF0AD006607B
:1014300047E101CF4FEAE671C0E9006141E101CF28
:1014400006803EE106703CE101CF8DF800000020EF
:101450008DF80100EB46012003E057F804BB4FF084
:10146000FF3061074FF0000102D40DE008F10101E7
:10147000884649450FDA8045F8DB1BF8081000293B
:10148000F4D108E008F1010188468142FADB1BF83B
:1014900008100029F6D1DDE90F23AAEB08008146E8
:1014A000214600F040F9304400EB080604E0DDE995
:1014B0000F121BF8010B9047B8F10108F7D2214633
:1014C0004846F9E002E10A20C4F302524FF0000B53
:1014D0000890022A07D001CFC117032A09D00AE0D9
:1014E00035E022E023E0FF1D27F00707F7E80201BF
:1014F00005E000B2C117042A01D140B2C11700298A
:1015000006DA0023D0EB030063EB01012D2202E099
:10151000220504D52B228DF82420012203E0E207C6
:1015200001D02022F7E7904653E00A2110E0102076
:101530004FF0000B08900EE0102109E010214FF051
:10154000000B44F004044FF00809089103E008215F
:101550004FF0000B0891C4F30252022A04D001CFCD
:101560000021032A06D007E0FF1D27F00707F7E850
:10157000020105E080B20021042A01D1C0B200219D
:101580004FF00008220724D5BCF1700F2AD0089B29
:1015900083F0100353EA0B0309D150EA010206D08D
:1015A00030228DF824208DF825C002229046089B19
:1015B00083F0080353EA0B030BD150EA010201D177
:1015C000620706D530228DF824204FF00108A9F1DA
:1015D000010941A2BCF1580F00D044A20B9208AA05
:1015E0000A920FE040228DF824200122DEE75B46BC
:1015F000089AFEF7C4FE0B9B9B5C0A9AA2F10102BB
:101600000A92137050EA0102F1D10A98ADEB000082
:1016100000F1200B600702D524F4803401E04FF084
:101620000109002049465A46D94501DDA1EB0200D7
:1016300000EB0B0141440890AAEB01000B90E00382
:1016400006D4DDE90F2321460B9800F06CF8064420
:101650004FF000090DF1240A07E0DDE90F121AF836
:1016600009009047761C09F10109C145F5DBE0034B
:101670000CD5DDE90F2321460B9800F054F8064401
:1016800004E0DDE90F1230209047761C0899481ECF
:1016900008900029F5DC08E00A980A990078491CAE
:1016A0000A91DDE90F129047761CBBF10001ABF106
:1016B000010BF1DC0B982146DDE90F2300F020F847
:1016C00006446D1C287800287FF40DAE11B030461A
:1016D000BDE8F08F09280100303132333435363718
:1016E000383941424344454600000000303132332E
:1016F000343536373839616263646566000000004E
:101700002DE9F0410446002517461E46880405D4FD
:1017100006E039462020B04705F10105641EF8D5E2
:101720002846BDE8F0812DE9F04104460025302728
:1017300090461E46C80300D42027880405D506E03D
:1017400041463846B04705F10105641EF8D52846E4
:10175000BDE8F08110B50A44521E0BE04B780C78BE
:1017600003EB04239BB2184480B2984201D2401C80
:1017700080B2891C9142F1D3914207D109780902C4
:10178000084480B2884201D2401C80B210BDFFF7ED
:10179000FDB9000090F8201006291AD10E490978E9
:1017A000C90716D00D4A018A1268538A994206D990
:1017B000C91A0182528A41681144416004E04268BA
:1017C0000023114441600382012180F82010084663
:1017D00070470020704700004C0000206800002087
:1017E00010B5104C607828B9FFF76EF8FFF7A4F831
:1017F00001206070282000F0FBF90246292000F04B
:10180000F7F904462A2000F0F3F903462B2000F0F4
:10181000EFF90146200640EA024040EA0120184361
:1018200010BD00008800002010B51249124C0020A5
:10183000225C0A54401CC0B20628F9D3002303F1ED
:101840001000E15CC0B200F0DBF95B1CDBB2062BE0
:10185000F5D300200949034600F11602D2B20A80EE
:101860000B81401CC0B20828F6D31D2008808020C0
:10187000088110BD440000208A0000200000106C88
:1018800070B5104C00252580032020810A2000F02F
:10189000F3F8FFF7C9FF00F08DF81F26268001201E
:1018A0002081C103002000F00FF840F2E111042074
:1018B00000F00AF84FF48051002000F005F826806F
:1018C000258170BD0000106C0D4A00B50C2340F05E
:1018D000400013801081080A0E2313801081C8B2C3
:1018E0000D21118010810B2313800A2010810B2001
:1018F00000F07EF9C007FAD113800820108100BDE6
:101900000000106C70B52A4A04460023F02000F055
:101910006FF9F42000F06CF90546F52000F068F945
:1019200005EB002085B2F02000F062F9012804D018
:10193000C0B300F03FF8002070BDF2201080118984
:101940001089B0F5C06F00D90123490403D5B0F563
:10195000FA7F00D901232918091D89B2C50701D0D2
:10196000491C89B2B1F5804F02D3A1F5505189B21B
:10197000012B03D0411C4B0800210EE0080AF5237F
:1019800013801081C8B2F42111801081BDE7158940
:101990004E1CB6B224F8115031469942F7D3001FBD
:1019A00080B270BDFFE7FE2010803F201081C2E7AB
:1019B0000000106C30B5144B00241C8003251D81E1
:1019C0000A2000F059F81C801D810A2000F054F80C
:1019D000FF211980802018812D221A801881012270
:1019E0001A802C221A8102221A801C81FE221A805F
:1019F0003F221A8119801881052018803120188112
:101A00000248047030BD00000000106C8800002007
:101A100030B5174D04460B462878022803D008E05D
:101A2000052000F029F8022000F0E2F8C007F7D105
:101A30002870C0B2401C28700E4A180AFD2111807F
:101A40001081FC21D8B211801081F82010805B1C1D
:101A50005808002105E000BF34F811301381491CFB
:101A600089B28142F8D3022010800120108130BD5C
:101A7000880000200000106C002206E00021491CB4
:101A800089B25029FBD3521C92B28242F6D3010094
:101A9000A0F1010080B2FAD17047000010B5FEF746
:101AA00013FFFEF749FF034901204870BDE81040CD
:101AB000FFF7E6BE88000020FFF7AABF10B5064C6E
:101AC00020212046FFF700FB0028F9D02046BDE882
:101AD0001040FFF747BB00000038014070B5074DCC
:101AE0000446C1B22846FFF741FB40212846FFF7D4
:101AF000EBFA0028F9D0204670BD00000038014004
:101B0000FFF7DCBF70B50446008804F12E055D28A0
:101B100014D003DC38B15B2834D106E05F281BD039
:101B200060282FD121E05B2020801A2217A12046B7
:101B300000F04CFD002828D05D2020802021204688
:101B400000F0D2FC002820D0282204F124012846ED
:101B5000FEF743FB5F202080062213A1204600F001
:101B600035FD002811D0602020802846FEF741FB7B
:101B700002462946204600F029FD002805D00C49E0
:101B80001020087000202080022070BD48656C6C19
:101B90006F2E205768617420697320796F757220E9
:101BA0006E616D653F0A000048656C6C6F20000037
:101BB0004C000020094810B50468094804F11C04D1
:101BC0000078400605D50A2204F12401204600F0E1
:101BD0006BFC2046BDE81040FFF794BF6800002072
:101BE0004C000020010241EA102080B27047000042
:101BF000024908800889C0B2704700000000106CDC
:101C0000014A1080118170470000106CFFF7E4F961
:101C1000FFF710FA38484FF47A7100250068B0FBDE
:101C2000F1F0B0F1807F0CD220F07F414FF0E02046
:101C3000491E4161314AF021117085614FF0070161
:101C400001612FA131A0FEF7FDFFFEF7ADFF34A02B
:101C5000FFF71EFB3F4C0126606940B1FFF702F918
:101C6000C4F8145002F0A8FBE06820B13EE0FFF792
:101C7000DBF86661F6E738A0FFF70AFB3CA0FFF748
:101C800007FB40A0FFF704FB44A0FFF701FB4AA0BD
:101C9000FFF7FEFA4DA0FFF7FBFA52A0FFF7F8FAA4
:101CA00056A0FFF7F5FA5BA0FFF7F2FA5FA0FFF787
:101CB000EFFA65A0FFF7ECFA68A0FFF7E9FA6AA06F
:101CC000FFF7E6FA6B496CA0FEF7A4FA69480178C1
:101CD0006170372901D0382901D1C4E9036567480B
:101CE000C4E90165058066A0FFF7D2FAFFF742FA62
:101CF000A0680028FAD0AFE7E444000823ED00E034
:101D0000323031352D31302D313400006864706C43
:101D1000635F7465737450726F6772616D00000069
:101D20000A0D4275696C64696E67205544502063E2
:101D30006F6E6E656374696F6E6720746F203139E2
:101D4000322E3136382E32302E3135362E2E2E0AA6
:101D50000A0D00000000002009093C2D2D4D61698D
:101D60006E204D656E752D2D3E09090A0A0D000085
:101D700020312E09476574205374617475730A0D00
:101D80000000000020322E095374617274205370D9
:101D9000656564546573740A0D00000020332E09D4
:101DA000476574205370656564546573745374613A
:101DB0007475730A0D00000020342E0947657420E5
:101DC000506879526174650A0D00000020352E09B3
:101DD00053797374656D20436F6D6D616E640A0D88
:101DE0000000000020362E0953797374656D20477A
:101DF0006574506879526174650A0D0020372E09A8
:101E000047657420416C6C204D6573736167657321
:101E10000A0D000020382E09536574204D6163209F
:101E2000416464726573730A0D00000020392E0945
:101E30005374617274204368616E6E656C4573748F
:101E4000696D6174650A0D0020612E094765742073
:101E500043494E52204D61700A0D000020302E097A
:101E6000457869740A0D00000A0D09496E70757491
:101E70002D2D3E00AC0000202573000050000020F6
:101E80002025630A0A0D000070B5056815F81C0FBF
:101E900020B10BA0FFF7FCF9002070BD11A0FFF7E7
:101EA000F7F900244FF4D87605EB440021468288E8
:101EB00018A0FFF7EDF9641CB442F5DB70BD00001B
:101EC0004765742043494E52204D617020726573FE
:101ED000756C74213D30206661696C7572652121D5
:101EE0000A0D0000457865637574652047657420A8
:101EF00043494E52204D617020636F6D6D616E6479
:101F0000207375636365737366756C6C79210A0D54
:101F10000000000063696E725B25645D3A25640908
:101F20000000000070B5056815F81C0F20B110A066
:101F3000FFF7AEF9002070BD15A0FFF7A9F9697889
:101F40001EA0FFF7A5F92BA0FFF7A2F92CA0FFF721
:101F50009FF905E0281901792DA0FFF799F9641C74
:101F6000062CF7DB2CA0FFF793F9012070BD0000D1
:101F70004765745068795261746520726573756C39
:101F8000743D30206661696C75726521210A0D000F
:101F9000457865637574652047657450687952614A
:101FA000746520636F6D6D616E6420737563636526
:101FB000737366756C6C79210A0D00004E756D6245
:101FC0006572206F6620706C632064657669636556
:101FD00020636F6E6E656374656420746F20726534
:101FE00066206465766963652069733A25640A0D25
:101FF0000000000044657669636520313A0A0D00EF
:102000004D4143204164726573733A0A0D0000002C
:102010002530327820000000526174653A0A0D00C4
:102020003EB5046814F81C0F20B139A0FFF730F951
:1020300000203EBD94F87100C0070FD03CA0FFF710
:1020400027F93CA0FFF724F9617BE37BA27B8DE8B5
:102050000E00237BE27AA17A3FA023E0607A012878
:1020600033A050D0FFF714F94AA000BFFFF710F9D2
:10207000617BE37BA27B8DE80E00237BE27AA17A71
:1020800035A0FFF705F994F8751094F8773094F8B7
:1020900076208DE80E0094F8743094F8732094F84C
:1020A00072104AA0FFF7F4F8217957A0FFF7F0F873
:1020B00061795DA0FFF7ECF8E18863A0FFF7E8F82D
:1020C000217A69A0FFF7E4F804F110016EA0FFF790
:1020D000DFF804F1500174A0FFF7DAF894F87010FB
:1020E00079A0FFF7D5F8617BE37BA27B8DE80E003A
:1020F000237BE27AA17A7CA0FFF7CAF8BDE83E40D4
:102100000BA0FFF7C5B8FFF7C3F87FA0AEE700004C
:10211000436D6420657865637574656420666169E4
:102120006C6564212028726573756C74213D3129BA
:102130000A0D0000204D6F6465202E2E2E2E2E2EAF
:102140002E2E2E2E2E2E2E2E2E2E2E2E2E204D616B
:10215000737465720A0D0000204D41432041646490
:1021600072657373202E2E2E2E2E2E2E2E2E2E2E98
:102170002E20253032782D253032782D25303278BA
:102180002D253032782D253032782D253032780AC1
:102190000D000000204D6F6465202E2E2E2E2E2E59
:1021A0002E2E2E2E2E2E2E2E2E2E2E2E2E20546500
:1021B000726D696E616C286E6F74206175746865EC
:1021C0006E74696361746564290A0D00204D617342
:1021D000746572204D4143204164647265737320BD
:1021E0002E2E2E2E2E20253032782D253032782D91
:1021F000253032782D253032782D253032782D2536
:102200003032780A0D0000002052656769737465EA
:1022100072656420496E666F202E2E2E2E2E2E2E75
:102220002E2025640A0D0000204574686572204C3C
:10223000696E6B5570202E2E2E2E2E2E2E2E2E2EAB
:102240002E2025640A0D0000204574686572205315
:102250007064447078202E2E2E2E2E2E2E2E2E2E92
:102260002E2025640A0D0000204D756C7469706C79
:1022700065204D6F6465202E2E2E2E2E2E2E2E2E96
:102280002E2025640A0D0000204D61696E205665E0
:102290007273696F6E202E2E2E2E2E2E2E2E2E2E27
:1022A0002E2025730A0D000020426F6F74205665A2
:1022B0007273696F6E202E2E2E2E2E2E2E2E2E2E07
:1022C0002E2025730A0D000020426561636F6E2089
:1022D000537461747573202E2E2E2E2E2E2E2E2EBC
:1022E0002E2025640A0D00000A0D24312530327895
:1022F00025303278253032782530327825303278E2
:10230000253032780A0D0000204D6F6465202E2E96
:102310002E2E2E2E2E2E2E2E2E2E2E2E2E2E2E2EDD
:102320002E205465726D696E616C286175746865E4
:102330006E74696361746564290A0D0010B50068E4
:10234000007F20B104A0FEF7A3FF002010BDBDE870
:1023500010400CA0FEF79CBF537461727443686117
:102360006E6E656C457374696D617465207265731A
:10237000756C74213D30206661696C757265212130
:102380000A0D0000457865637574652053746172A9
:10239000744368616E6E656C457374696D617465D4
:1023A00020636F6D6D616E64207375636365737315
:1023B00066756C6C79210A0D0000000010B500688C
:1023C000007F20B104A0FEF763FF002010BDBDE830
:1023D00010400BA0FEF75CBF5374617274537065BC
:1023E00065645465737420726573756C74213D3037
:1023F000206661696C75726521210A0D000000007C
:10240000457865637574652073706565647465737C
:102410007420636F6D6D616E6420737563636573A3
:102420007366756C6C79210A0D00000010B50468A4
:102430000AA01C34FEF72CFF2046FDF7DAFE014609
:1024400007A0FEF725FF21460EA0FEF721FF21463B
:1024500013A0FEF71DFF012010BD00000A0D0000B3
:1024600053797374656D20436F6D6D616E64205296
:102470006573756C74204C656E6774683A25640AE0
:102480000D00000053797374656D20436F6D6D61AD
:102490006E6420526573756C743A25730A0A0D00D8
:1024A000243225730A0A0D0010B5002480F820405C
:1024B0004482C160C261416102830480448010BDD6
:1024C000418A39B990F82010022905D005480078D2
:1024D000800704D501207047032180F820100020D8
:1024E000704700004C0000202DE9F0430246408870
:1024F0000F4602F114034FF002094FF0000820B11B
:10250000A0F580701B3851D108E0D168D0691960FE
:102510009880508A78B940F21B1050801046FFF71F
:10252000CFFF002845D0274882F820902649006830
:102530009060088850821C4602F1120013E09568F2
:1025400026682D7835709168491C91602168491C76
:1025500021600188491E0180A188491EA180BD42D9
:1025600001D148461AE0A1880029018802D000293B
:10257000E5D100E009B9404610E091680488641E86
:10258000097804809468B94204F10104946001D18F
:10259000032003E001880029EFD101208007B8D58E
:1025A000118BD069401A0004000C04D0A2F80280FC
:1025B0000220BDE8F08382F82080A2F8028000208B
:1025C000F7E70000600000205000002070B50446CE
:1025D0004088002510B1CF2818D109E022B16160F0
:1025E000228284F820500CE0012070BDCF20608052
:1025F0002046FFF7CFF80646204600F093FA064241
:1026000007D0208A0028F1D184F82050658002206C
:1026100070BD002070BD00002DE9F04781462648BE
:10262000264E1FA30168306821A5002459B1012955
:1026300007D1012805D1484600F0A2F920483460AE
:102640000460BDE8F087B0460128FAD11D4F1E4A4C
:10265000002039184E78411C165408460C29F8DB26
:102660001948545419466438FDF7CBFD1649A1F1B9
:102670006400FDF7A4FD144829466438FDF79FFD6A
:1026800012A0FEF705FE104911A06439FEF700FE06
:1026900004224AF240114846FEF7A6FA4046CFE728
:1026A00075665F7068797261746520676574200073
:1026B000202D6D6270730000100000209400002037
:1026C00008000020AC000020940100200A0D00004A
:1026D00073797374656D20636F6D6D616E643A25F7
:1026E000730A0D0004224AF23061FEF77DBA10B57C
:1026F00004224FF4B851FEF777FA012800D00020E9
:1027000010BD10B504224AF24011FEF76DFA0128FF
:1027100000D0002010BD00002DE9F04107462448FC
:10272000244D00240168286869B1234E012926D070
:10273000022928D0032920D101281ED11FA1224817
:10274000FDF75FFD2AE0012817D11F4900201F4A2D
:1027500064311318461C5B780B5430460C2EF8DBA2
:102760008C551BA11848FDF74CFD24A0FEF790FDE9
:102770001549384600F05AF82C60BDE8F081012870
:10278000FBD11FA1DBE70128F7D125A10E48FDF7FA
:1027900038FD0D490C486431FDF711FD17A0FEF717
:1027A00077FD0949384600F041F82C603460E4E7D1
:1027B000100000209400002008000020756C5F725B
:1027C000657365740000000030010020AC0000203B
:1027D00075665F666163746F727970776420736584
:1027E00074206E657770617373776F726420303117
:1027F0003233343536373839000000000A0D000016
:1028000075665F726573746F72656D616320736561
:102810007420303132333435363738390000000017
:1028200075665F6D616320736574200070B50E4638
:1028300005464FF480624DF6F071FEF7D5F9012898
:1028400001D0002070BD2C6815A01C34FEF720FDBF
:1028500031462046FDF7D5FC214612A0FEF718FDB3
:102860002046FDF7C6FC401CC11700EB917121F01A
:102870000301411AC1F10402042A08D00021FF23F8
:1028800002E04618491CA3559142FADB10442A681D
:1028900000F108011030116129684881012070BDE4
:1028A0000A0D000073797374656D20636F6D6D613F
:1028B0006E643A25730A0D0070B5044608224AF288
:1028C000E001FEF791F92168084C1C31084A00200C
:1028D00023185D78431C155418460C2BF8DB002395
:1028E00013540348FEF726FB012070BDAC00002006
:1028F0009401002070B590B00546002408224AF2E9
:10290000C001FEF771F9012802D0002010B070BD9F
:102910002E680EA01C36FEF7BBFC6D4604E0295560
:1029200014A0FEF7B5FC641C1348FFF7E9F8C1B228
:102930000D29F4D10020285510A0FEF7A9FC31463E
:102940006846FEF7F7FA0120E0E70000506C656189
:10295000736520656E746572204D616320616464E7
:10296000726573732028364279746529202D2D3EB7
:1029700000000000256300009C0000200A0D0000FC
:102980002DE9F041054600240FF2AC082EA74FF4C4
:1029900080624DF6F071FEF727F9012802D0002081
:1029A000BDE8F0812E682A4B2A491C361819427856
:1029B000601C0A5504460C28F8DB00200855254801
:1029C00041466438FDF71DFC2249A1F16400FDF782
:1029D000F6FB204839466438FDF7F1FB1EA0FEF7F0
:1029E00057FC1C491DA06439FEF752FC19493046BA
:1029F0006439FDF706FC3046FDF7FBFB401CC117B0
:102A000000EB917121F00301411AC1F10402042A83
:102A100008D00021FF2302E04418491C335591429D
:102A2000FADB10442A6800F10801103011612968AE
:102A300048810120B4E7000075665F7068797261B3
:102A40007465206765742000202D6D62707300002E
:102A5000AC000020940100200A0D0000737973740B
:102A6000656D20636F6D6D616E643A25730A0D00AC
:102A700070B5054600264FF480624DF6F071FEF702
:102A8000B3F8012801D0002070BD2C681AA01C34B6
:102A9000FEF7FEFB04E0A1551FA0FEF7F9FB761C34
:102AA0001E48FFF72DF8C1B20D29F4D10021A15520
:102AB0001BA0FEF7EDFB2046FDF79BFB401CC1175A
:102AC00000EB917121F00301411AC1F10402042AC3
:102AD00008D00021FF2302E04618491CA35591426B
:102AE000FADB10442A6800F10801103011612968EE
:102AF0004881012070BD0000506C656173652069DC
:102B00006E7075742073797374656D20636F6D6D6D
:102B1000616E64202D2D3E00256300009C00002086
:102B20000A0D000010B5044690F82000062803D1D5
:102B30000B480078400711D50A49208A0968498A5C
:102B4000884201D9606802E062680146104601F0DF
:102B50001FFC062084F82000012010BD002010BDBD
:102B60004C00002068000020FEF798BF10B5024816
:102B7000FEF7C8FE80B210BDA801002002480188FF
:102B80000248FEF799BF000050000020A801002075
:102B900010B50446FEF7FBFD2168401A61688842C3
:102BA00001DB012010BD002010BDD0E9001211444E
:102BB0000160704710B504464160FEF7E8FD2060F3
:102BC00010BD00002DE9F0474648474F002400881B
:102BD000464E012500281DD145493A780868362A15
:102BE00064D008DCA2F13002062A0CD2DFE802F041
:102BF0000E13260B3A4C372A6AD0382A6ED0392A5F
:102C00006DD0612A6CD03BA0FEF742FB42A0FEF7DC
:102C10003FFB356097E28846002820D045A0FEF7AC
:102C200037FB4B48FFF76DFD012805D049A000BFD9
:102C3000FEF72EFB54A010E05DA0F9E788460028BF
:102C4000EBD069A0FEF724FB4148FFF753FE0128B3
:102C500006D06EA0FEF71CFB7AA0FEF719FB6DE212
:102C600084A0F7E788460028F9D091A0FEF710FB72
:102C70003748FFF73CFD012804D095A0FEF708FB7C
:102C8000A0A0EAE7AAA0F9E788460028E7D0B5A007
:102C9000FEF7FEFA2E48FFF7EBFE012804D0B9A09C
:102CA000FEF7F6FAC4A0D8E7CEA0F9E788460028D8
:102CB000D5D0D9A0FEF7ECFA2548FFF761FE012830
:102CC00004D0DDA0FEF7E4FAE9A0C6E7F3A0F9E737
:102CD000884610B1FFA0FEF7DBFA0DE210E218E221
:102CE00022E2000050000020010000200800002027
:102CF00004000020506C6561736520696E70757406
:102D0000206E756D62657220636F72726563746C9C
:102D100079210A0D0000000052657475726E2074EE
:102D20006F204D61696E204D656E752E2E2E0A0A3C
:102D30000D000000526561647920746F2072756E19
:102D4000204765745374617475732E2E2E0A0D001E
:102D5000A025002047657453746174757320435F28
:102D60004844504C435F455854434D445F494620C6
:102D7000696E697469616C697A65206661696C6500
:102D800064210A0D00000000436F6D6D616E6420C8
:102D90004765745374617475732073656E74207322
:102DA00075636365737366756C6C79210A0A0D002F
:102DB00047657453746174757320435F4844504C85
:102DC000435F455854434D445F494620696E6974DA
:102DD00069616C697A652073756365737366756C78
:102DE0006C79210A0D000000526561647920746FCE
:102DF0002072756E205374617274537065656454EB
:102E00006573742E2E2E0A0D00000000537461723B
:102E10007453706565645465737420435F4844500F
:102E20004C435F455854434D445F494620696E69A1
:102E30007469616C697A65206661696C6564210AF0
:102E40000D000000436F6D6D616E642053746172FC
:102E5000745370656564546573742073656E742073
:102E60007375636365737366756C6C79210A0A0DFB
:102E7000000000005374617274537065656454659A
:102E8000737420435F4844504C435F455854434D4E
:102E9000445F494620696E697469616C697A65208E
:102EA00073756365737366756C6C79210A0D000028
:102EB000526561647920746F2072756E2047657465
:102EC000506879526174652E2E2E0A0D00000000A4
:102ED0004765745068795261746520435F48445077
:102EE0004C435F455854434D445F494620696E69E1
:102EF0007469616C697A65206661696C6564210A30
:102F00000D000000436F6D6D616E64204765745065
:102F10006879526174652073656E7420737563639C
:102F200065737366756C6C79210A0A0D00000000E8
:102F300047657450687952617465204558545F4301
:102F40004D445F494620696E697469616C697A65B0
:102F500064207375636365737366756C6C79210A9D
:102F60000D000000526561647920746F2072756EE7
:102F70002053797374656D436F6D6D616E642E2E91
:102F80002E0A0D0053797374656D636D6420435F81
:102F90004844504C435F455854434D445F49462094
:102FA000696E697469616C697A65206661696C65CE
:102FB00064210A0D00000000436F6D6D616E642096
:102FC00053797374656D436F6D6D616E64207365C5
:102FD0006E74207375636365737366756C6C7921A9
:102FE0000A0A0D0053797374656D436D642045586A
:102FF000545F434D445F494620696E697469616C52
:10300000697A6564207375636365737366756C6C48
:1030100079210A0D00000000526561647920746F07
:103020002072756E205379734765745068795261C8
:1030300074652E2E2E0A0D005379734765745068FF
:10304000795261746520435F4844504C435F455852
:1030500054434D445F494620696E697469616C69E7
:103060007A65206661696C6564210A0D00000000C4
:10307000436F6D6D616E642053797347657450685A
:1030800079526174652073656E742073756363652E
:10309000737366756C6C79210A0A0D005379734756
:1030A000657450687952617465204558545F434D8A
:1030B000445F494620696E697469616C697A656428
:1030C000207375636365737366756C6C79210A0D83
:1030D00000000000526561647920746F2072756E83
:1030E00020476574416C6C4D657373616765732E21
:1030F0002E2E0A0D000000004948FFF78DFA1DE052
:10310000884610B147A0FEF7C3F84548FFF704FB17
:1031100014E08846002811D04AA0FEF7B9F84048CC
:10312000FFF7CAFB51A098E5884638B15CA0FEF7CE
:10313000AFF83B48FFF7D6FA61A08EE53848FDF7B7
:103140004FFCC8F800406A480078800765D53068B1
:10315000002862D13248FDF717FC3878362823D092
:1031600008DC312814D0322816D0342818D035285D
:1031700052D119E0DFF87C81DFF87C915F4F37286E
:1031800016D0382825D039283FD0612844D140E0D6
:103190002348FEF745FF3FE02148FFF70FF93BE0EA
:1031A0001F48FEF7BFFE37E01D48FFF73FF933E049
:1031B000386800281A4809D0FFF738F93868401CE9
:1031C0003860C8F8045002281CD025E0FEF728FF1C
:1031D000F4E7386880B1012810D0494949A0FEF7CA
:1031E00057F80F48FFF722F93868401C3860C8F8D4
:1031F0000450042806D00FE04AA000E057A0FEF7D4
:1032000047F8EEE7C9F8004006E00548FFF796F8F2
:1032100002E00348FEF738FE3560BDE8F0870000A5
:10322000A0250020526561647920746F2072756E4C
:10323000205365744D6163416464726573732E2E0F
:103240002E0A0D00526561647920746F2072756ECC
:103250002053746172744368616E6E656C4573745B
:10326000696D6174652E2E2E0A0D0000436F6D6D21
:10327000616E642053746172744368616E6E656C34
:10328000457374696D6174652073656E7420737520
:10329000636365737366756C6C79210A0A0D0000AF
:1032A000526561647920746F2072756E2047657471
:1032B00043494E524D61702E2E2E0A0D0000000023
:1032C000436F6D6D616E642047657443494E524D86
:1032D000617032546F32382073656E742073756379
:1032E0006365737366756C6C79210A0A0D000000C2
:1032F0004C000020900000200C0000201000002056
:10330000940100204578656375746520636D643AA7
:103310002075665F6D6163207365742025730A0DE7
:10332000000000004578656375746520636D643A3C
:103330002075665F666163746F727970776420735D
:103340006574206E657770617373776F7264203077
:103350003132333435363738390A0D0045786563F4
:1033600075746520636D643A2075665F7265737469
:103370006F72656D61632073657420303132333450
:1033800035363738390A0D00034800688088C02870
:1033900001D1FFF717BC70476C000020044800689B
:1033A0000C308168002902DD406800F0F1BF7047F1
:1033B0006C00002070B5C378CDB2144A2B44DEB245
:1033C000D670837803EB1123DBB29370447854708A
:1033D0000078B3EB112F107006D2641C14F0FF01BB
:1033E000517001D1401C1070AE420DD25B1C13F025
:1033F000FF00907008D15078401C10F0FF00507012
:1034000002D11078401C107070BD000074000020C4
:1034100010B5094C0146E0690830FFF7CBFF04F115
:103420002800E16902780A7242784A7282788A72C8
:10343000C078C87210BD00004C0000202DE9F04794
:103440002D48002102882A2A02D20180BDE8F08797
:103450000180DFF8A8802A4C454605F11601814617
:10346000B8F81470EA8C881D23882D8D66884FF477
:10347000007AB7F5807F09D05745E7D19A42E5D168
:10348000B542E3D1BDE8F04700F00EB99A42DDD174
:10349000B542DBD100F008F9A8F814A0D8F816005E
:1034A000C8F82000174BB8F81A10A8F824101A68AA
:1034B000C8F816209B88A8F81A30C8F80620A8F883
:1034C0000A30C8F80000A8F80410B8F81C00A8F8E2
:1034D0002600B8F81E00A8F828002088A8F81C00CC
:1034E0006088A8F81E004FF4C160A8F80C002A21DB
:1034F000A9F80010AAE7000050000020A801002051
:103500005A000020440000202DE9F05FDFF82C81F4
:10351000DFF82C914046B8F81E204FF6FF71DFF817
:1035200024B1008CB9F804408A4209D1884207D1FD
:1035300045480168C8F800108088A8F804003AE0FF
:10354000424F43493D88B1F800A002EA05030AEA68
:1035500005064D883F49B34205D17E8800EA06033F
:103560002E40B34204D03C4802880A80408800E0E4
:103570000A80488037480022001FDFF8E0C0027050
:103580000E884F88D2B202EB42010CEB81010B880E
:103590009E4202D14B889F4204D0521CD2B202708C
:1035A000082AEFD3D0B2082812D04A68C8F8002001
:1035B0000989A8F80410D9F80000C8F80600A8F88E
:1035C0000A400820A8F80C00BBF800100E3130E0CB
:1035D000FF2206211948FCF7DFFD0021C8F8201062
:1035E000A8F82410D9F80010C8F80610A8F80A4066
:1035F000C8F81610A8F81A40A8F82660A8F828708D
:10360000A8F81CA0A8F81E504FF48071A8F8141058
:103610004046A8F80E100821018206218174042179
:10362000C1744FF4C161818104480D49363008608E
:103630002A21ABF80010BDE8F09F0000A80100208F
:103640004400002050000020E84400087C000020D6
:103650005A0000208400002078000020402500202F
:1036600060000020F0B50E480E4E8178491CCAB2A9
:10367000827000240470037803EB430106EB8101A0
:103680000D884F883D4304D08D7A551B782D00DB83
:103690000C605B1CD9B201700829ECD3F0BD0000AE
:1036A00080000020402500202DE9F04381462B4872
:1036B0004FF000082A4A80F800808378057805EBEF
:1036C000450402EB8404278887B1668876B1B9F88F
:1036D00000C0BC450AD1B9F80270B74206D10868EB
:1036E000606088882081A372BDE8F0836D1CECB215
:1036F0000470082CE2D3474680F80080057805EB7B
:10370000450402EB840426880EB9668826B16D1C38
:10371000EDB20570082DF1D3EDB2082D19D1C770A7
:10372000477007700478C77804EB440502EB850501
:10373000AE7A9D1BBD4201DDC5704470641CE4B2CD
:103740000470082CEED34478047004EB440002EBC0
:103750008004D9F800002060C1E70000800000204C
:103760004025002010B516480021164C41704278C3
:10377000531CDBB224F812104370282BF7D3124BE2
:103780004170427802EB4204C4EB421403EB840420
:10379000521CD2B261764270282AF2D34FF4806272
:1037A000084B428141705033427802EB420403EBF4
:1037B000C404521CD2B2A18042700A2AF4D310BDB4
:1037C0004C000020CC230020AC11002010B51422A6
:1037D00006490020FDF7BEFF4FF6FF7118B1010248
:1037E00041EA102081B2084610BD0000B601002059
:1037F000014601A0FDF74CBD754950206C6F672054
:103800006D6573736167653A2025730A00000000D7
:103810002DE9F05FFE4FFF4D002605F13601DFF880
:10382000F8B3FC698946042879D079614FF0100A11
:10383000B961032819D0022822D00C3988460528FE
:103840006ED0BBF802005C46401CABF80200584644
:10385000A97B0088401C80B2452963D02080E08885
:10386000401CABF80600EDA0FAE2607E00F00F000D
:1038700003282BD1208A0028FBD108203870F8E3D8
:10388000E3482430C178491C11F0FF01C1700ED10A
:103890008178491C11F0FF01817008D14178491CE1
:1038A00011F0FF01417002D10178491C0170BE8006
:1038B000FE80607E07280AD0052808D0002805D0A1
:1038C000218A71B3A17E481EA07641B143E0A07E5B
:1038D000401CC0B2A0767828F8D166763BE0E07E46
:1038E000082827D0617E022901D0012901D10528AD
:1038F00020D004221146042800D801460320884025
:10390000A076E07E401CE076BBF82610491CABF8A0
:103910002610607E00F00F000928D7D203E0D9E01E
:103920001AE014E024E0DFE800F016FE0B0EFD16AE
:10393000FD16FD00667680203870FEF73BF9FEE349
:1039400085F82F60ACE23A70FEF734F9F8E300F046
:103950000F00032891D03EE1386A80880028B5D056
:103960007961C7E90616FE80BE8008203870AFE096
:10397000697C2A7C01EB0221BA88914204D8B98083
:10398000297D890604D101E0AEA069E2697D31B1EB
:103990002080A089401CABF80C00B6A060E29C49D6
:1039A0000E310A88498802B941B1EB8B934202D1AA
:1039B0002A8C8A4202D0ABF800000CE1FFF706FF28
:1039C000A0F57F41FF3907D02088401C2080E08986
:1039D000401CE081ADA043E2E87D06287ED011289E
:1039E00031D0012807D02088401C2080208A401C2C
:1039F0002082ABA034E2A08A401CA08295F822006D
:103A0000082807D0608A401C6082208B401C2083DD
:103A1000AAA025E285F82260A88C4FF6F7718842AB
:103A200001D3093000E00830A884688BE883784827
:103A3000A98B0E302984018869834088A883E08A95
:103A4000401CE082F3E3B8881C38B880C7F81480C3
:103A5000288D68B100F020FDA0F57F41FF3907D027
:103A6000A08D401CA085608E401C608699A0F7E167
:103A700069486949F03838621BE08288BAB1AB8C7A
:103A8000934214D1C28812B16B8C93420FD1028839
:103A90009AB14FF6FF739A4202D144889C420FD0EC
:103AA0006B8B934203D1AA8B43889A4208D018307B
:103AB00038628842E1D38CA0D2E14388002BEFD159
:103AC0000220FE613870C7F81480C7F81880FE80A5
:103AD000FFF75AFCF88800287DD000E02FE000F1C5
:103AE0001C01B9800A0A2A746974396A083080B2E4
:103AF0000A7AAA751122EA75020242EA1020E884C5
:103B00002E8588886884C888A88441480E30028839
:103B10006A834088A8830888E88348882884C7F88F
:103B2000149001E0F3E2B9E100F0B6FCC0430004F8
:103B3000000C288502D14FF6FF702885EBE3A18B9E
:103B4000A346491CA18300F033FCA0F57F41FF3957
:103B50000BD0BBF81A106DA0491CABF81A10BBF8BB
:103B60002010491CABF820107AE16D4CB5F822C04A
:103B70006B8BA88BDFF8AC81A98C0EE0627E5AB10A
:103B8000A288914208D1E288944505D122889342C7
:103B900002D16288904238D074344445EED995F809
:103BA0002F0000F03F00022818D15E4BB9817E70D3
:103BB0007433B84698F8012033F81200884225D0B3
:103BC000521CD0B288F801002828F3D3BBF82A1081
:103BD00001F1010100E01AE0ABF82A1095F82F007E
:103BE000400714D4BBF8241005F12605491CABF896
:103BF0002410142068724FF02800B8804FF0500055
:103C00002872E978E879E8708EE071E1BFE061E25E
:103C10004C000020A80100200C25002069703A20EB
:103C2000696E76616C69642076657273696F6E2067
:103C30006F7220686561646572206C656E67746878
:103C40002E00000069703A207061636B6574207308
:103C5000686F72746572207468616E207265706F2F
:103C60007274656420696E204950206865616465DE
:103C7000722E000069703A20667261676D656E741D
:103C80002064726F707065642E00000069703A20C5
:103C900062616420636865636B73756D2E0000005C
:103CA00069703A206E65697468657220746370206B
:103CB0006E6F722069636D702E00000069636D7015
:103CC0003A206E6F742069636D70206563686F2E93
:103CD000000000007564703A2062616420636865CA
:103CE000636B73756D2E00007564703A206E6F20E3
:103CF0006D61746368696E6720636F6E6E6563746F
:103D0000696F6E20666F756E640000007463703AB0
:103D10002062616420636865636B73756D2E0000BB
:103D2000AC11002058230020AA78A879A870AA71A5
:103D30006C78687968706C71287878702B792B7042
:103D400001F10101287111F0FF01E971A5F12605CA
:103D50000ED1521C12F0FF0185F82C1008D1641C02
:103D600014F0FF0185F82B1002D1401C85F82A00C1
:103D7000688CB881A98C6984A884688BE883A98B36
:103D8000FF482984018869834088A883D2E2FD48DE
:103D9000002488F8016000BF98F8011001EB41028F
:103DA000C2EB411200EB8202537E13B1072B08D005
:103DB0000EE0C9B201EB4102C2EB411100EB8104FC
:103DC0000CE024B1937E94F81AC0634500D91446E0
:103DD000491CC9B288F801102829DDD3CCB30320CF
:103DE000C8F81C40A0762076A6750420E07505F181
:103DF0001A05E6766889A0802889E08028882080D6
:103E000068886080DE484FF0010200F1160062769B
:103E100001782173417861738178A173C078E07370
:103E20002282E87BE072A87BA072687B6072287BAC
:103E300020721046FFF7ECFA287DA5F11A0500F074
:103E4000F00150292AD90009810088F8016014394D
:103E500020E0FFE7BBF82810CBA0491CABF82810E6
:103E6000FFF7C6FC5EE22B1893F8362088F8022094
:103E7000A2B1012A02D0022A02D005E0401C07E0CC
:103E800093F83720042A25D093F8372032B1104414
:103E900088F8010098F801008142E4DC85F82FA041
:103EA00005F12E054FF00200697841F002016970BA
:103EB00028724FF0040068724FF00F00A8724FF0A4
:103EC000CA00E8724FF02C00B8804FF0600005F88F
:103ED0002E09F3E1C0B2284440F6CA71008F40BAFF
:103EE000A8F80C00884200D801466182A182D5E77B
:103EF000FC613E7095F82F30580706D56676ABA06A
:103F0000FFF776FC20203870A0E195F82E00A94636
:103F1000000980007870B988081A143880B2B88017
:103F2000617E01F00F01022903D103F03F01122944
:103F300017D008B9980714D099F82600217A4A4674
:103F400088427ED192F82700617A8842F9D192F8AE
:103F50002800A17A8842F4D199F82900E17A8842B0
:103F6000EFD1D8063FD5218AE9B304F10C00FFF761
:103F700021FA834899F82A101A30C84602789142EB
:103F800031D198F82B10437899422CD198F82C1005
:103F900090F802C0614526D199F82D10C078814271
:103FA00021D12273637384F80EC0E073E07EA8B958
:103FB000207EA27EA17D801AA0EBD10040B20144F8
:103FC000CAB2A275002801DA404240B2E17DA0EBFE
:103FD00091000844E07500EBD20020760120387093
:103FE000207EA0762682617E4FF0070801F00F0048
:103FF00009286FD2DFE800F06E05146FF1F0EF25AD
:10400000EE003878C00765D0032060764020387015
:104010002682B88870B342213970FFF7F9F9A5E01C
:104020003878C00706D099F82F10484601F03F01B4
:10403000122907D020203870FDF7BCFDF8694676BC
:10404000CCE534E190F82E1001F0F002502A20D98E
:1040500009098A007E70143A18E000BF00EB010CD9
:104060009CF83630BB70A3B1012B04D0022B04D0D6
:1040700007E07CE07AE0491C07E09CF83730042B2D
:104080001BD09CF8373023B11944797079788A4273
:10409000E4DC0321617610F8261F217241786172F9
:1040A0008178A17299F82900E0720120FFF7B0F938
:1040B000422038702682BE8058E0C9B2014440F6E2
:1040C000CA72098F49BAB981914200D80A46628200
:1040D000A282DEE735E099F82F00C20719D0CA06A0
:1040E00017D4208A68BBB888401C80B2FFF790F9CB
:1040F000387840F010003870B98811B140F00200F3
:104100003870FDF757FD0120208208206FE0112054
:1041100035E080060AD5B9F834307A6958BA1044C7
:104120007861BA8858BAA2EB0000B880B88858B154
:10413000C90609D4397841F00201397002E01DE066
:1041400062E085E0FFF764F999F8310099F83010E2
:1041500000EB012080B2B881A18A814200D300B96E
:10416000B981B88960823878800771D0FE80FDF708
:1041700021FD3978880634D5FE80667614202DE03E
:104180005A000020AC1100207463703A20666F75ED
:104190006E64206E6F20756E7573656420636F6E3C
:1041A0006E656374696F6E732E0000007463703AFD
:1041B00020676F742072657365742C2061626F7262
:1041C00074696E6720636F6E6E656374696F6E2EBF
:1041D0000000000034E09FE05BE03AE085F82F004B
:1041E00067E0C80606D5FE800120208204206076A4
:1041F000E6768CE7F88830B1C90701D026820FE057
:10420000218A69B1F980E676B8697861F88878B171
:10421000208A68B12830B880182085F82F004AE03D
:10422000618A814200D2F980F8882082EBE7A5E01C
:104230003878800776D52820B88085F82FA03AE016
:104240003878C0076ED0667687F800A0FDF7B2FC1C
:1042500068E0B88808B1FFF7DBF899F82F00C007CD
:1042600038784FEAC0700FD020B184F81980A67654
:10427000268201E0062060760120FFF7C9F887F862
:1042800000A0FDF797FC12E078B105206076268249
:1042900048E0B88808B1FFF7BBF899F82F00C007CD
:1042A00003D084F81980A676E6E7B88890B389F839
:1042B0002FA02820B880502085F82E0005F1160583
:1042C000207A2875607A6875A07AA875E07AE87512
:1042D000207B2874607B6874A27BAA74E27B4FF019
:1042E0000601EA746970A1882848A981E188E981FA
:1042F0000188A9804088E8802088288160886881BA
:10430000607EA5F11605C0060ED585F8316085F8EA
:1043100030600FE006E01CE03878C00702D084F877
:104320001980A676BE802EE00F2085F83000CA20C6
:1043300085F831004020A875B888010A297468748E
:1043400085F8356085F834606E8600F031F8C0433A
:1043500068864520A873EE736E752E753889401CEB
:104360003881010AA974E8742E83FFF72FFAC0433D
:104370002883BBF81E10491CABF81E10BBF80410B4
:10438000491CABF804103E70BDE8F09F5A000020B5
:10439000002909DD8AB20549CA808B69984203D099
:1043A00001461846FBF7E6BE704700004C000020AF
:1043B000062000F075B8000038B54AF6C000ADF828
:1043C00000000B4C49F61440ADF80200A06808B19B
:1043D00000218180C021684600F00CF8A060002810
:1043E00005D0C0218180207840F08000207038BD49
:1043F000900000202DE9F0438946254A25494FF4D5
:10440000FA4C4FF4805800274B895B1C9BB24B81C0
:10441000634501D3A1F80A804F704C89230243EA17
:1044200014239DB24B7803EB430602EBC606B68815
:10443000B542E9D05B1CDBB24B700A2BF2D34F7054
:104440004B7803EB430502EBC505AD883DB15B1C22
:10445000DBB24B700A2BF3D30020BDE8F083DBB254
:1044600003EB430312EBC302F6D02104090A41EA2D
:1044700014219180A2F8069038B1018811804088FB
:104480005080402010721046E7E71760F9E70000FF
:104490001C2400204C000020112000F001B8000076
:1044A0000F4910B54A7C097C6FF0130303EB01211F
:1044B00011448CB20A49204480B208221A31FDF717
:1044C00049F9074922462231FDF744F94FF6FF71B9
:1044D00018B1010241EA102081B2084610BD000067
:1044E000A801002000A24A04FFFFFFFFFFFF0040D9
:1044F00040404040404040404141414141404040B7
:1045000040404040404040404040404040404005E6
:10451000020202020202020202020202020202205D
:10452000202020202020202020020202020202025D
:10453000909090909090101010101010101010107B
:1045400010101010101010101010020202020202BF
:1045500088888888888808080808080808080808DB
:1045600008080808080808080808020202024000B3
:10457000EF4400089445000800000020AC00000053
:10458000B812000840460008AC000020FC380000CB
:10459000C812000800000000000000000000000039
:1045A000000000000000000000000000000000000B
:1045B00000000000000000000000000000000000FB
:1045C00000000000020406080000000001020304CD
:1045D00001020304060708090000000000000000B3
:1045E00000000000000000000000000000000000CB
:1045F00000000000000000000000000000000000BB
:1046000000000000000000000000000000000000AA
:10461000000000000000000000000000000000603A
:104620006E9000AE000000000100000000000000DD
:10463000000000000000000000000000000000007A
:0400000508000131BD
:00000001FF
