:020000040800F2
:10000000F8D7002065010008892200084D18000873
:1000100085220008630B0008BB2A000800000000CE
:100020000000000000000000000000007D26000825
:10003000670B000800000000952300082D28000829
:100040007B0100087B0100087B0100087B010008A0
:100050007B0100087B0100087B0100087B01000890
:100060007B0100087B0100087B0100087B01000880
:100070007B0100087B0100087B0100087B01000870
:100080007B0100087B0100087B0100087B01000860
:100090007B0100087B0100087B0100087B01000850
:1000A0007B0100087B0100087B0100087B01000840
:1000B0007B0100087B0100087B0100087B01000830
:1000C0007B0100087B0100087B0100087B01000820
:1000D0007B0100087B0100087B0100087B01000810
:1000E000D51200087B0100087B0100080000000019
:1000F0000000000000000000000000000000000000
:1001000000000000000000007B0100087B010008E7
:100110007B0100087B0100087B0100087B010008CF
:100120007B0100087B0100087B0100087B010008BF
:100130007B010008510D00087B0100087B010008CD
:100140007B0100087B0100087B0100087B0100089F
:10015000DFF80CD000F0A6F900480047214700085E
:10016000F8D7002005480047FEE7FEE7FEE7FEE778
:10017000FEE7FEE7FEE7FEE7FEE7FEE751010008C7
:1001800040EA01039B0703D009E008C9121F08C019
:10019000042AFAD203E011F8013B00F8013B521E99
:1001A000F9D27047D2B201E000F8012B491EFBD210
:1001B00070470022F6E710B504460846114602468D
:1001C0002046FFF7EFFF204610BD034600E0401C2D
:1001D0000278002AFBD111F8012B00F8012B002A2C
:1001E000F9D1184670470146002000E0401C0A5C27
:1001F000002AFBD17047034611F8012B00F8012BB0
:10020000002AF9D1184670470FB400B589B00BA881
:1002100000906A4603480A9900F03AF909B05DF87F
:1002200014FB0000540100202DE9FF5FD2E901B862
:100230000027916914469946DDF838A03E4601989A
:100240008847054659EA0A0005D009E0A169761CED
:10025000019888470546216A284688470028F5D135
:10026000681C03D05FEACB7005D015E04FF0FF307B
:1002700004B0BDE8F09F2068011D216007680BE015
:100280005FEACB7001D107F8015BA169A8F1010811
:10029000761C019888470546B8F1000F1ADD681CE6
:1002A00018D0B9F1000F0DD0E81705EBD06042115E
:1002B00020F01F0059F822102A1A01209040014214
:1002C000DED107E0BAF1000FDAD1216A284688476B
:1002D0000028D5D0E169019888470BF0010050EA69
:1002E0000A0000D13870A2686FF001004245BFDDFE
:1002F000BAF1000F02D0B8F1000FB9D13046B7E71C
:100300002DE9F05F0F46934680460446002602F032
:10031000E7FBD0F80090824614F8015B2DB100F0A5
:100320005BF80068405DC007F6D12B2D02D02D2D63
:100330001CD0641E0021CAF800105A4639462046D7
:1003400000F057F8014627B13868A04201D1C7F83C
:100350000080DAF80000022805D0CAF80090C1F148
:100360000000720500D40846BDE8F09F46F48066A0
:10037000E0E72DE9F05F0546002092469B4688465F
:100380000646814640241DE028464146474622460F
:1003900000F0BFF8B0EB0A0052465B4671EB0B0170
:1003A00010D310461946224600F0A4F82D1A67EB28
:1003B00001084F4622460120002100F09BF817EB70
:1003C00000094E41201EA4F10104DDDC48463146FF
:1003D0002A464346BDE8F09F00487047A4AA00089B
:1003E00010B50446FFF7F8FF0068005D00F001005B
:1003F00010BD2DE9F05F8246044600780027641C9A
:100400008B461546B946302801D09DB113E014F84B
:10041000010B0127782803D0582801D045B10AE004
:100420000DB1102D07D10027102514F8010B02E0A3
:10043000082500E00A250026B0460EE005FB08006E
:1004400005FB06F1012701EB10461FFA80F8B6F50F
:10045000803F00D3B94614F8010B294600F069F833
:100460000028EBDABBF1000F04D0641E07B9544634
:10047000CBF80040B9F1000F06D002F031FB0221A9
:100480000160C81EBDE8F09F48EA0640FAE7000098
:10049000024B9361024BD36100F062B8A5360008AD
:1004A000E5040008064C074D06E0E06840F0010353
:1004B00094E8070098471034AC42F6D3FFF74CFE9F
:1004C000A8AA0008C8AA0008094910B508784C1C59
:1004D00018B1401E0870205C10BD00210720ABBE83
:1004E000207010BD02490878421C0A707047000055
:1004F00060010020202A04DB203A00FA02F10020EB
:1005000070479140C2F1200320FA03F31943904051
:100510007047202A04DB203A21FA02F000217047BC
:1005200021FA02F3D040C2F120029140084319465B
:1005300070473A2800D2303820F02002412A01D3F7
:10054000A2F137004FF0FF32884200D20246104637
:100550007047000002681144137801601846704724
:100560000B461146044A4A61044A0A620022C1E964
:10057000033200F005B8000055050008E10300084B
:100580002DE9F34F8BB0012081460A904FF000080F
:1005900001F10C000C4646460DF1080A0190626913
:1005A00001210198904705002DD0252D2CD0216ADE
:1005B0008847C0B16269012101989047216A884744
:1005C0000028F7D1411E62690198904700E0761C2F
:1005D000A1690B988847216A88470028F7D1E1690B
:1005E0000B988847DBE7A1690B9888470746A84224
:1005F00001D1761CD3E7E1690B9888477F1C02D1B3
:10060000B8F1000F72D016E1002762693D46394605
:10061000019890472A2804D16269012101989047E6
:100620000125DFF890B26269012101989047A0F19D
:1006300030020A2A0DD2B9F1000F0AD05F45E2DC80
:1006400007EB870100EB4107303FDCD445F0100594
:10065000E9E7E90601D46FF000476C280AD04C287E
:1006600014D0682815D06A280DD074281CD07A2898
:100670001AD01DE062690121019890476C2802D0D0
:1006800045F0040514E045F002050DE045F02005B5
:100690000AE06269012101989047682802D045F07C
:1006A000080505E045F4006562690121019890475D
:1006B000C4E90157652842D019DC58287ED00CDCEB
:1006C00045283CD004DC252826D0412831D136E00D
:1006D000462834D047282CD131E05B287BD06128D4
:1006E0002DD0632877D0642823D15EE022E06F28E4
:1006F0004CD008DC662822D0672820D0692826D074
:100700006E2816D12CE0702849D073286CD075283B
:100710004BD078280DD151E0A1690B988847054648
:1007200025283FF466AFE1690B9888476D1C3FF4BC
:1007300067AF80E04FF0FF300DB0BDE8F08F23468B
:100740006A466FF001000B99AFF300809EE045F020
:1007500040006060A80723464FF0000235D43DE01A
:10076000206800F1040121600068290501D50670A8
:1007700015E7290701D5068011E7A90704D54FEA37
:10078000E671C0E900610AE7066008E745F040004D
:100790006060A80723464FF0080216D41EE040F61A
:1007A0000E0125EA0100606016E045F0400060603F
:1007B000A80723464FF00A0207D40FE045F0400097
:1007C0006060A80708D5234610226FF001000B993E
:1007D000AFF300805AE007E0234610226FF00100DB
:1007E0000B99AFF3008051E00027BB4639466328E0
:1007F00002D05B2807D040E0E80601D4C4F8089096
:100800004FF0010B39E062690121019890475E28A1
:1008100004D101276269394601989047216931B9AD
:100820000023524642F82130491C0829FADB10B156
:10083000216911B10FE040467EE7C11700EBD1639B
:100840005A110AEB820123F01F03C31A0A6809FA3E
:1008500003F002430A6062690121019890475D2814
:10086000E5D14FB10020514651F82020D24341F844
:100870002020401C0828F7DB02A90B462246CDF8B1
:1008800000B06FF001000B99FFF7CEFC002808DAEA
:100890004FF0FF31401C01D10A9800B9414608468B
:1008A0004AE7E90701D108F10108064400200A904F
:1008B00075E60000CCCCCC0C70B501EB020410F84E
:1008C000015B15F0070301D110F8013B2A1106D195
:1008D00010F8012B03E010F8016B01F8016B5B1EAF
:1008E000F9D12B0705D40023521E0FD401F8013B88
:1008F000FAE710F8013B02F10202A1EB030303E067
:1009000013F8015B01F8015B521EF9D5A142D6D361
:10091000002070BD21B1826842F00102826003E0D4
:10092000826822F0010282607047000000B585B045
:10093000164800F02DF8002000908DF804008DF886
:1009400005004FF4602002900020039001208DF8F4
:10095000100069460D4800F06BF801210B48FFF7C5
:10096000D9FF0A4800F0E8F800BF084800F055F841
:100970000028FAD1054800F0EFF800BF034800F066
:1009800035F80028FAD105B000BD00000024014070
:1009900010B504461248844208D10121401501F0E7
:1009A0003BFD0021601501F037FD17E00D48844242
:1009B00008D10121001501F02FFD0021201501F0C3
:1009C0002BFD0BE00848844208D10121C80301F047
:1009D00023FD00214FF4004001F01EFD10BD00007A
:1009E0000024014000280140003C01400146002055
:1009F0008A6812F0040F01D0012000E00020704747
:100A00000146C86C80B270470246002013680B4252
:100A100001D0012000E000207047014600208A68D4
:100A200012F0080F01D0012000E000207047000004
:100A300030B502460020002350680F4C20400D794D
:100A40000C6844EA05242043506090680B4C204019
:100A5000D1E902542C434D7944EA45042043906087
:100A6000D06A20F470000C7C641EE4B2234340EA98
:100A70000350D06230BD0000FFFEF0FFFDF7F1FF34
:100A8000F0B504460D4600200021092D11DDE06877
:100A9000A5F10A0606EB4607072606FA07F1884382
:100AA000A5F10A0606EB460603FA06F10843E060E4
:100AB0000CE0206905EB4507072606FA07F1884395
:100AC00005EB450603FA06F108432061072A0FDA11
:100AD000606B561E06EB86071F2606FA07F1884351
:100AE000561E06EB860605FA06F10843606322E00F
:100AF0000D2A0FDA206BD61F06EB86071F2606FA93
:100B000007F18843D61F06EB860605FA06F108436F
:100B1000206310E0E06AA2F10D0606EB86071F26AF
:100B200006FA07F18843A2F10D0606EB860605FAE0
:100B300006F10843E062F0BD816841F00801816080
:100B4000704721B1826842F4A002826003E08268AB
:100B500022F4A00282607047816841F00401816044
:100B6000704700BFFEE770470149486170470000C9
:100B70000090024029B1064AD2690243044BDA616F
:100B800004E0034AD2698243014BDA6170470000F6
:100B90000090024030B10749896941F00201054ADD
:100BA000916105E00349896921F00201014A9161DF
:100BB000704700000090024030B50C4613460021FB
:100BC000104D286000BF18E000EB01124FF0004507
:100BD000156044F2F0555560C1EB411505EB8115E8
:100BE00004EB051595605D1E8D4204D900EB0115DF
:100BF0001035D56000E0D060491C9942E4D3024D25
:100C0000E86030BD780000200090024021B14268C9
:100C100022F00042426003E0426842F0004242603B
:100C20007047000030B10749896941F40051054A15
:100C3000916105E00349896921F40051014A9161FC
:100C4000704700000090024030B50C46134600216A
:100C50000F4D286000BF15E000EB01124FF4801526
:100C60001560C1EB411505EB811504EB0515956089
:100C70005D1E8D4204D900EB01151035D56000E0F2
:100C8000D060491C9942E7D3024D286130BD000075
:100C9000740000200090024002680A43026070471E
:100CA00010B50121880301F087FB00214FF480403B
:100CB00001F082FB10BD0021014600E0491E002921
:100CC000FCD170470348806940F480100149886175
:100CD000704700000090024001480068806870473B
:100CE0007400002001460868C0F30D407047000002
:100CF00000B500220F480068006810F0004F16D1C0
:100D00000C480068006810F4004F10D109480068D2
:100D1000006810F4807F0AD006480068006810F46C
:100D2000007F04D003480068FFF7DCFF024610464E
:100D300000BD00007800002000200449096811F07F
:100D4000010F01D0012000E0002070470090024018
:100D500010B501E001F08EFAFFF7CAFF0028F9D1C3
:100D60004020FFF701FF4FF48030FFF7FDFE10BD7C
:100D70002DE9F04786B0044688464FF0000900256B
:100D8000AA46854F00268548056925F01C0501A85F
:100D900001F052FB029F8248874205D38148874277
:100DA00002D245F0080509E07E48874205D37A481B
:100DB000874202D245F00C0500E000BF774805618C
:100DC0004FF400420021404600F054FA18B90020C8
:100DD00006B0BDE8F0877448FFF76DFF2068002873
:100DE00044D000BF761C0121404600F025F910F0E8
:100DF000040F02D16D488642F4D36C48864201D17B
:100E00000020E5E700264FF480520021404600F024
:100E100031FA08B90020DBE700BF761C012140460B
:100E200000F00AF910F0200F02D160488642F4D396
:100E30005E48864201D10020CAE7002610214046C4
:100E400000F0FAF8814619F0040F03D04FF4006067
:100E5000206201E00020206219F0020F02D0002081
:100E6000606116E04FF48040606112E0206AC0F3D8
:100E7000CF006169C1F34F0140EA01020021404601
:100E800000F0F8F908B90020A2E76FF07F40FFF703
:100E900012FF4248056846480540D4E9010108436D
:100EA000E16808432169084361690843A16908436F
:100EB000E1690843216A0843616A0843A16A08435B
:100EC000E16A0843216B0843616B084305433348DB
:100ED0000560D4E90E010843216C0843616C0843A6
:100EE000A16C0843E16C0843216D0843616D084320
:100EF0002A494860A06D8860E06DC8600846856931
:100F00004FF641700540D4E9181040EA0140A16E47
:100F10000843E16E0843216F0843616F08430543AE
:100F20001E488561D4E91E0108431C49C861214857
:100F3000856921480540D4E920010843D4F8881088
:100F40000843D4F88C100843D4F890100843D4F820
:100F500094100843D4F898100843D4F89C10084320
:100F6000D4F8A0100843054312488561D4E929014B
:100F70000843D4F8AC100843D4F8B0100843D4F8B0
:100F8000B41040EA8100D4F8B810084340F40000DF
:100F90000849086001201BE7008793030080024096
:100FA000002D3101C00E1602FFFF0F00FFFF0400ED
:100FB0000F8120FF00900240233FDEF810B50B792F
:100FC0004C7943EA0422094B03441A64CB781B068C
:100FD0008C7843EA04434C7843EA04230C7843EAD0
:100FE0000402024B03445A6410BD0000008002401A
:100FF00030B10749096841F00401054A116005E074
:101000000349096821F00401014A1160704700009A
:101010000080024030B10749096841F00801054AE3
:10102000116005E00349096821F00801014A1160D7
:10103000704700000080024010B503460C460021B6
:1010400000221348016901F01C014FF4784000EAC6
:10105000C32001434FF4F86000EA8410014321F0FB
:10106000020141F001010A48016100BF521C084819
:10107000016911F0010F02D006488242F6D30548FB
:10108000824201D1002010BD0148406980B2FAE7D8
:1010900000800240FFFF04001EB5002100220092E4
:1010A00001920292214A1268126812F0004F10D089
:1010B000002200921E4A526912F0800F04D0802252
:1010C0001B4B5A6100229A609DE81C0080E81C00BE
:1010D0001EBD164A1268126812F4004F16D1134A48
:1010E0001268126812F4807F10D0104A12681268D9
:1010F00012F4007F0AD00D4A12681268C2F30D4242
:10110000111F0A4A12689268019200E000210091C2
:10111000064A12680292054A1268D268034B1A60A6
:101120009DE81C0080E81C0000BFD1E7780000208B
:10113000009002400348006840F001000149086047
:10114000704700000090024000B50120FFF762FFE9
:10115000FFF7B8FD0120FFF74BFF0120FFF762FD0D
:101160000120FFF717FD00BD002101604160816093
:10117000C160016141618161C1610162416281625D
:10118000C162016341638163C16340210164202125
:10119000416400218164C164016541658165C16567
:1011A00001668021416600218166C1660167416751
:1011B0008167C1674FF08061C0F880104910C0F8A6
:1011C00084104910C0F88810C910C0F88C10002194
:1011D000C0F89010C0F89410C0F89810C0F89C1097
:1011E000C0F8A0104FF00071C0F8A4100021C0F8A2
:1011F000A8104FF40031C0F8AC104912C0F8B0107C
:101200000021C0F8B410C0F8B81070470146174864
:101210000068006810F0004F01D000207047C1F353
:101220000C00124A1268506010480068006840F0D4
:1012300040500E4A126810600C480068006840F088
:1012400000400A4A126810600948406910F0040F13
:1012500004D00420064A5061002050600348006812
:10126000C068024A10600120D8E700007400002026
:101270000090024030B503460C461546002100227E
:101280001248016901F01C014FF4784000EAC320C4
:1012900001434FF4F86000EA8410014341F0020179
:1012A00041F0010109484561016100BF521C074836
:1012B000016911F0010F02D005488242F6D30448BB
:1012C000824201D1002030BD0120FCE700800240B5
:1012D000FFFF040010B54FF4804000F0CBF8002869
:1012E0007DD00721822000F071FD10F0070F7BD028
:1012F00000F09AFD4349086008460068008800280D
:101300005ED0084600688088DC2859DA0846006804
:101310008088B42854DD0846006840880A280FDD1C
:1013200008460068408846280ADA37A1902000F075
:1013300055FE032001F096F9032006F0EDFA4BE08C
:101340003048006840885A280FDD2E4800684088E1
:1013500096280ADA32A1902000F040FE022001F027
:1013600081F9022006F0D8FA36E026480068408865
:10137000AA280FDD234800684088E6280ADA2EA153
:10138000902000F02BFE012001F06CF9012006F006
:10139000C3FA21E01B4800684088FA281CDD194880
:1013A00000684088B0F59B7F16DA29A1902000F0F4
:1013B00015FE002001F056F9002006F0ADFA0BE012
:1013C000002001F043F9012001F040F9022001F072
:1013D0003DF9032001F03AF90721822001E00FE0F6
:1013E00002E000F0E9FC07E0FF21822000F0E4FCCD
:1013F000FF21882000F0E0FC4FF4804000F034F83A
:1014000010BD000000000020204C4434202020208B
:10141000202020202020202020202020000000004C
:101420002020202020204C44332020202020202059
:10143000202020200000000020202020202020202C
:101440002020204C443220202020202000000000BA
:10145000202020202020202020202020202020208C
:101460004C44312000000000014908607047000032
:1014700014040140014600200022074B1B6803EAC8
:101480000102064BD3F814340B4202D00AB10120FA
:1014900000E000207047000000040140000001400F
:1014A00070B504462068408900F10E060022B1B2F2
:1014B000104604F00FF90546201D6860314606A06D
:1014C00001F0FEFA29460648006808F06CF8284644
:1014D00004F006FB70BD000054783A256409000052
:1014E0005C00002000B5AFB0012000F0EFF84FF431
:1014F000004001F093F8012001F08AF800BF3D2080
:1015000001F062F80028FAD00B2001F07BF8FFF719
:10151000C7FBFFF70FFE00BFFFF70EFC0128FBD053
:101520006846FFF721FE01200090002007904FF44D
:1015300000700A9000200B900E9011901390149060
:10154000159020904FF00070219000112390002002
:101550002590269004202890C005299040122A90BA
:1015600080012B9040122C9040002E900121684663
:10157000FFF7FEFB01210248FFF7FCFA2FB000BD88
:101580004000010008B50420ADF8000003208DF8EC
:10159000020018208DF803006946484800F09CF8C6
:1015A0000620ADF8000003208DF8020018208DF809
:1015B00003006946424800F08FF843F62010ADF86A
:1015C000000003208DF8020018208DF80300694602
:1015D0003C4800F081F80B20ADF8000003208DF8A6
:1015E000020004208DF803006946344800F074F8C6
:1015F0004FF48060ADF8000003208DF80200042055
:101600008DF8030069462F4800F066F80820ADF811
:10161000000003208DF8020004208DF803006946C5
:10162000274800F059F84FF4C050ADF800000320EF
:101630008DF8020004208DF803006946224800F06E
:101640004BF83020ADF8000003208DF80200042094
:101650008DF8030069461A4800F03EF88020ADF886
:10166000000003208DF8020004208DF80300694675
:10167000124800F031F80120ADF8000000208DF88C
:10168000030069460E4800F027F87020ADF800000E
:1016900000208DF803006946084800F01DF84FF45B
:1016A0008070ADF8000003208DF8020018208DF83E
:1016B00003006946014800F00FF808BD000801402A
:1016C00000100140000C0140001401400149086075
:1016D00070470000DC0020422DE9F0410246002561
:1016E0000026002000230024002791F803C00CF0FE
:1016F0000F0591F803C01CF0100F03D091F802C041
:101700004CEA0505B1F800C01CF0FF0F31D0146899
:1017100000202BE04FF0010C0CFA00F3B1F800C0F0
:101720000CEA03069E4220D183004FF00F0C0CFA06
:1017300003F7BC4305FA03FC4CEA040491F803C028
:10174000BCF1280F06D14FF0010C0CFA00FCC2F8D6
:1017500014C00AE091F803C0BCF1480F05D14FF066
:10176000010C0CFA00FCC2F810C0401C0828D1D3B0
:101770001460B1F800C0BCF1FF0F34DD54680020E4
:101780002EE000F1080C4FF0010808FA0CF3B1F854
:1017900000C00CEA03069E4221D183004FF00F0CDB
:1017A0000CFA03F7BC4305FA03FC4CEA040491F875
:1017B00003C0BCF1280F05D100F1080C08FA0CF8A1
:1017C000C2F8148091F803C0BCF1480F07D100F1B2
:1017D000080C4FF0010808FA0CF8C2F81080401C01
:1017E0000828CED35460BDE8F0810AB1016100E061
:1017F00041617047014608681C30704710B50446C7
:101800000523012221460E48FFF73AF901210C4831
:10181000FFF797F900BF02210948FFF7F5F8002804
:10182000F9D00748FFF7ECF8064908800648008819
:10183000098808440449088000200249088010BD36
:1018400000240140200000202200002000BFFEE70D
:1018500021B1028842F48062028004E002884FF6DF
:10186000FF331A400280704770B5024600240025FD
:1018700000230020958A138B1B0445EA030626F0FB
:101880007F448C4201D1012000E0002070BD21B1D5
:10189000028842F00102028004E002884FF6FE73E3
:1018A0001A400280704721B1028842F4807202809F
:1018B00004E002884FF6FF631A400280704721B1AE
:1018C000028842F40072028004E002884FF6FF535F
:1018D0001A400280704700002DE9F04385B00446AD
:1018E0000D460026B1460427DFF8CC80A6884FF6C7
:1018F000C0710E40684600F09FFDDDF808802F485B
:10190000B8FBF0F01FFA80F946EA0906A6802088A5
:101910004FF6FE7108402080002629492868884239
:101920000CD828684000B8FBF0F087B2042F00DA2A
:1019300004273E4309F10100208427E0E888A0F550
:101940003F41FF3906D1286800EB4000B8FBF0F0BA
:1019500087B209E0286800EBC00101EB0010B8FB7A
:10196000F0F087B247F480473805000D01D147F009
:10197000010747F4004006434FF4967009FB00F05E
:101980004FF47A7190FBF1F0401C2084A6832088EC
:1019900040F00100208026884FF6F5310E40A888DF
:1019A0006989084306432680A8892989084320813C
:1019B00005B0BDE8F083000000127A0040420F003D
:1019C000A0860100F8B505460E46022400208DF8D9
:1019D00000008DF801008DF802008DF80300002151
:1019E0004E48FFF754FF01214C4800F05CF90021FC
:1019F0004A4800F058F900F0F9F901214748FFF78B
:101A000052FF40F6FF704649086008E0444801680C
:101A10000068401E424A106009B90220F8BD4149E1
:101A20003E48FFF721FF0028F0D0002229463B481E
:101A300000F02EF908E03A4801680068401E384A74
:101A4000106009B90220E9E737493448FFF70CFF75
:101A50000028F0D001213148FFF719FFF1B22F48DB
:101A600000F01FF908E02E4801680068401E2C4A6B
:101A7000106009B90220D1E72B49891C2748FFF7DC
:101A8000F3FE0028EFD001212448FFF70CFF08E007
:101A9000234801680068401E214A106009B90220ED
:101AA000BCE720491D48FFF7DFFE0028F0D00122E7
:101AB00029461A4800F0ECF808E019480168006867
:101AC000401E174A106009B90220A7E71549491CB2
:101AD0001248FFF7C9FE0028EFD017E0012C07D10C
:101AE00000210E48FFF7B4FE01210C48FFF7E7FE86
:101AF0000C493F310948FFF7B7FE38B1074800F0FD
:101B0000C3F8611E0DF80100601EC4B2002CE5D1BF
:101B100001210248FFF79CFE00987FE70054004037
:101B200084000020010003008200070070B5044615
:101B30000E46002500215048FFF7A9FE01214E481E
:101B400000F0B1F800214C4800F0ADF800F04EF97B
:101B500001214948FFF7A7FE40F6FF70474908609A
:101B600008E0464801680068401E444A106009B910
:101B7000022070BD42494048FFF776FE0028F0D0B1
:101B800000213D48FFF764FE002221463A4800F05C
:101B90007FF840F6FF703949086008E0374801686F
:101BA0000068401E354A106009B90220E1E7354956
:101BB0003148FFF759FE0028F0D031462E4800F09A
:101BC00070F808E02D4801680068401E2B4A10603C
:101BD00009B90220CDE72B49891C2748FFF744FEAD
:101BE0000028EFD001212448FFF75DFE08E02348DC
:101BF00001680068401E214A106009B90220B8E758
:101C00001F491D48FFF730FE0028F0D00122214671
:101C1000194800F03DF808E0184801680068401EC7
:101C2000164A106009B90220A3E71549491C124859
:101C3000FFF71AFE0028EFD008E01048016800689E
:101C4000401E0E4A106009B9022092E70C493F314C
:101C50000948FFF709FE0028EFD001210648FFF7E9
:101C60002EFE054800F010F8054601210248FFF756
:101C7000EFFD28467DE7000000540040840000206E
:101C800001000300820007000146088AC0B27047C5
:101C900012B141F0010102E04FF6FE7319400182DA
:101CA00070470182704721B1028842F400420280ED
:101CB00003E00288C2F30E02028070472DE9F04172
:101CC00004460E461546002701213748FFF7EBFF73
:101CD00000213548FFF7E7FF40F6FF703349086001
:101CE00001213148FFF7D3FD00F080F801212E4893
:101CF000FFF7D9FD09E02D4801680068401E2B4A16
:101D0000106011B90220BDE8F08129492648FFF78B
:101D1000ABFD0028EFD0002221462348FFF7B8FF93
:101D200008E0224801680068401E204A106009B996
:101D30000220E8E71F491C48FFF796FD0028F0D075
:101D400031461948FFF7ADFF40F6FF7017490860AC
:101D500008E0164801680068401E144A106009B97E
:101D60000220D0E71349891C0F48FFF77DFD0028AA
:101D7000EFD029460C48FFF794FF08E00B480168B4
:101D80000068401E094A106009B90220BBE70949F2
:101D9000891C0548FFF768FD0028EFD001210248A3
:101DA000FFF78DFDF8B2AEE700540040840000203C
:101DB000010003008200070070B505460C4622466C
:101DC0000B212846FFF77AFF002070BD70B505464D
:101DD0000C4600260B212846FFF7A8FE06462642A1
:101DE00001D0012070BD0020FCE700001FB50020DD
:101DF000ADF804004BF6FF70ADF806000020ADF81A
:101E000008004FF48060ADF80A000001ADF80C0046
:101E10000348009069460348FFF75EFD1FBD0000C0
:101E2000801A0600005400402DE9F0414021822034
:101E3000FFF77CFE00F080002049088008460088FB
:101E400020B300F041F8054600F053F804461C4862
:101E50000068854203D91A480068281A02E0184829
:101E60000068401B064617480068844203D915489D
:101E70000068201A02E013480068001B0746F019AA
:101E8000052803D90E4805600E4804600C48006818
:101E90000A4948800B480068888000F041F80749EB
:101EA000C88001224B218220FFF708FF00224B212E
:101EB0008220FFF703FF0148BDE8F0819400002075
:101EC000880000208C00002070B54F218220FFF791
:101ED00079FD054605EB850040F3931460011D2153
:101EE00090FBF1F0A0F11104002C00DC0024A0B262
:101EF00070BD70B54D218220FFF764FD0546C5EB2E
:101F0000051040F31324C4EB04100001D92190FB09
:101F1000F1F0A0F10C04002C00DC0024A0B270BD94
:101F200010B551218220FFF74DFD044604B900246D
:101F3000A0B210BD70B504460E4615464FF4805150
:101F4000201DFEF736F9A01D2060AA202168087028
:101F500021684870216888702168C87021680871FC
:101F60002168487121688871AB202168C8710320FD
:101F7000216808724FF201002168888107482168B2
:101F8000486146F001002168088305F108002168D6
:101F90000861083021684881012070BD677E4E0BC2
:101FA00070B504460D461646324629462046FFF7D0
:101FB0001CFC70BD70B505460E461446A4F1200009
:101FC000C4B204EB4400044901EB00123146284638
:101FD00000F024F870BD0000049800082DE9F041DD
:101FE00007460C46002540F23F1609E022783146AC
:101FF0003846FFF7DFFFA6F1100086B2641C6D1CA7
:10200000207808B1012000E00020142D01D2012128
:1020100000E000210842E9D1BDE8F0812DE9F04758
:1020200006468946174600240025A046B046494684
:10203000404600F031F800BF23E000F055F80025DD
:102040000FE037F814000121A940084204D10F48DD
:10205000008800F02DF803E00D48008800F028F813
:102060006D1C102DEDD3012204210A48FFF798FFC3
:1020700008F1010000F0FF084946404600F00CF866
:10208000641C182CD9D3BDE8F0870000C2000020E2
:10209000C0000020000C014070B504460D462146EA
:1020A000202000F029F82946212000F025F870BDF5
:1020B00010B5044621120B4800F0C5FA00BF80217C
:1020C000084800F0B7FA0028F9D1E1B2054800F05D
:1020D000BAFA00BF8021034800F0ACFA0028F9D119
:1020E00010BD0000003C004010B5222000F02EF88A
:1020F000722000F051F810BD70B505460C46284618
:1021000000F024F8722000F047F821120D4800F08A
:102110009AFA00BF80210B4800F08CFA0028F9D110
:10212000E1B2084800F08FFA00BF8021054800F0B6
:1021300081FA0028F9D1012204210348FFF730FF7A
:1021400070BD0000003C0040000C014010B504468A
:10215000702000F021F800210D4800F074FA00BF53
:1021600080210B4800F066FA0028F9D12146084882
:1021700000F069FA00BF8021054800F05BFA0028F2
:10218000F9D1012204210348FFF70AFF10BD000026
:10219000003C0040000C014010B504460022042120
:1021A0000748FFF7FDFE2146064800F04CFA00BF45
:1021B0008021044800F03EFA0028F9D110BD00004B
:1021C000000C0140003C004000B589B015A103C9D6
:1021D000CDE9040102F06EFC02F0F0FD134801F0BD
:1021E000ABFB08906FF0FF0001F0A6FB07900F48D3
:1021F0000A3801F0A1FB069004A800F0C9FA0C4BC4
:102200000C4A00218DE80E0006AB07AA08A90A486F
:1022100003F0A2F9084803F0EDF9074803F038FA93
:1022200009B000BD00000000000100000B14A8C0B0
:10223000C13500082D360008C801002010B504463D
:102240000A480068201AFA2803D30848046006F0F8
:10225000ABFF07480068201A41F28831884203D357
:102260000348046001F05CF910BD00003C00002050
:102270004000002010B5024801F0FEF910BD00003A
:10228000C801002000BFFEE7704708B500214FF0ED
:10229000006000F075F84FF4A06000F053F83D20A6
:1022A0008DF8000002208DF8010000208DF802005A
:1022B00001208DF80300684600F002F808BD000018
:1022C00070B5002100230F22C4784CB31A4C246847
:1022D00004F4E064C4F5E0644FEA1421C1F104039E
:1022E00022FA01F2447804FA03F1847804EA020441
:1022F00044EA01014FEA0111104C0678A155047817
:1023000004F01F054FF0010404FA05F405784FEAC4
:1023100065154FF0E02606EB8505C5F8004109E09C
:10232000047804F01F050124AC40054D06787611B1
:1023300045F8264070BD00000CED00E000E400E030
:1023400080E100E002490143024A11607047000049
:102350000000FA050CED00E010B5002807DA0A07C6
:10236000120E054B00F00F04241F1A5503E00A0754
:10237000120E024B1A5410BD18ED00E000E400E00C
:10238000024A0A400243024B1A60704780FFFF1F57
:1023900008ED00E07047000029B1064A5269024387
:1023A000044B5A6104E0034A52698243014B5A616B
:1023B000704700000010024029B1064A926A0243A9
:1023C000044B9A6204E0034A926A8243014B9A6288
:1023D000704700000010024029B1064AD26902434A
:1023E000044BDA6104E0034AD2698243014BDA61AB
:1023F000704700000010024029B1064A926902436A
:10240000044B9A6104E0034A92698243014B9A614A
:10241000704700000010024029B1064AD26802430A
:10242000044BDA6004E0034AD2688243014BDA606D
:1024300070470000001002402DE9F0410021002209
:10244000002500230026002400278C46DFF8608149
:10245000D8F8048008F00C0121B1042907D008291C
:1024600059D109E0DFF84C81C0F8008058E0DFF86E
:102470004881C0F8008053E0DFF83481D8F8048048
:1024800008F47012DFF82881D8F8048008F4803549
:10249000920C0D2A01D0921C00E0062235B9DFF81B
:1024A0001C8102FB08F8C0F8008033E0DFF80081EF
:1024B000D8F82C8008F48036DFF8F480D8F82C8027
:1024C00008F00F0808F1010446B9DFF8EC80B8FB0A
:1024D000F4F808FB02F8C0F800801BE0DFF8D080B9
:1024E000D8F82C80C8F3031808F10107DFF8C08082
:1024F000D8F82C80C8F3032808F1020CDFF8B88064
:10250000B8FBF7F808FB0CF8B8FBF4F808FB02F886
:10251000C0F8008004E0DFF89C80C0F8008000BFB5
:1025200000BFDFF88C80D8F8048008F0F0010909BA
:10253000DFF88C8018F80130D0F8008028FA03F812
:10254000C0F80480DFF86880D8F8048008F4E061FF
:10255000090ADFF86C8018F80130D0F8048028FAF6
:1025600003F8C0F80880DFF84880D8F8048008F441
:102570006051C90ADFF8488018F80130D0F80480AB
:1025800028FA03F8C0F80C80DFF82480D8F804801B
:1025900008F44041890BDFF82C8018F80130D0F89E
:1025A0000C80B8FBF3F8C0F81080BDE8F0810000A3
:1025B0000010024000127A0040787D0100093D00C1
:1025C000600000207000002010B5014600220023AA
:1025D00000204A11012A02D1094C236806E0022A90
:1025E00002D1074C236A01E0054C636A01F01F0227
:1025F000012494401C4201D0012000E0002010BDC5
:10260000001002400149C8717047000000100240EC
:10261000014908677047000000004242014600205F
:10262000034AD06A20F470400843D062704700002B
:10263000001002400246002013890B4201D0012005
:1026400000E000207047818170470000034931F8A5
:102650001010034A52F8202051617047B4970008C7
:102660009C000020034931F81010034A52F8202042
:1026700011617047B49700089C000020704710B5A6
:1026800000F002F810BD0000002100203C4A126852
:1026900042F480323A4B1A6000BF394A126802F4A1
:1026A0000030491C10B9B1F5A06FF6D1344A126858
:1026B00012F4003F01D0012000E0002001285BD18E
:1026C000304A126842F010022E4B1A601A46126805
:1026D00022F003021A601A46126842F002021A60DF
:1026E000274A5268264B5A601A4652685A601A4660
:1026F000526842F480625A601A46D26A224B1A40EB
:102700001F4BDA621A46D26A204B1A431C4BDA621C
:102710001A46126842F080621A6000BF184A1268B6
:1027200012F0006FFAD0164A526822F47C12144B51
:102730005A601A46526842F4E8125A601A46126801
:1027400042F080721A6000BF0D4A126812F0007FDA
:10275000FAD00B4A526822F00302094B5A601A461B
:10276000526842F002025A6000BF054A526802F005
:102770000C02082AF9D101E000BFFEE77047000013
:10278000001002400020024000F0FEFF440601005D
:1027900010B5044620780849087060784870A07821
:1027A0008870E078C8702079087160794871214696
:1027B0000020FEF703FC10BDD00000202DE9F843F7
:1027C000074688460024002000904546B946384612
:1027D000FDF709FD06460EB9BDE8F88322E099F839
:1027E00000008DF8000004EBD4714910B4EB4101F6
:1027F00007D110226846FDF783FD0007000E287000
:102800000AE0102200216846FDF77AFD00F00F0073
:102810002978084328706D1C09F10109761E641C93
:1028200006B900E0DBE700BF00BFD5E710B500F058
:1028300077F810BD10B51448006840F00100124947
:10284000086008464068114908400F49486008463A
:1028500000680F4908400C4908600846006820F4E9
:10286000802008600846406820F4FE004860084662
:10287000006820F0A05008604FF47F0088600020BE
:10288000C862FFF7FCFE10BD001002400000FFF020
:10289000FFFFF6FE10B502480068FFF7CFFC10BD41
:1028A0000800002010B586B0FFF7C4FF01214804DE
:1028B000FFF792FD01214FF4E030FFF76DFD01219C
:1028C00040F27D20FFF798FDFFF7DFFCFEF72EF8C2
:1028D000FEF758FEFEF706FE01A8FFF7ADFD6421E6
:1028E0000198B0FBF1F4B4F1807F00D311E024F043
:1028F0007F40401E4FF0E02148610F214FF0FF3034
:10290000FFF72AFD00204FF0E021886107200861D1
:1029100000BF0121881EFFF71FFD06B010BD00009B
:10292000024800680A30014908607047080000202A
:1029300001F40072B2F5007F00D100BFCA430280EB
:10294000704721B1828942F40052828104E0828979
:102950004DF6FF731A4082817047000000B585B0C4
:1029600001210520FFF748FD01218803FFF744FD01
:102970004FF40070ADF8100018208DF813000320FC
:102980008DF8120004A91748FEF7A6FE4FF48060E8
:10299000ADF8100004208DF8130004A91148FEF7CB
:1029A0009BFE04A90F48FEF797FE4FF4E13000901C
:1029B0000020ADF80400ADF80600ADF80800ADF851
:1029C0000C000C20ADF80A006946074800F01CF81E
:1029D00001210548FFF7B5FF40210348FFF7A8FF95
:1029E00005B000BD0008014000380140024600204B
:1029F000B1F5007F00D100BF13880B4201D0012048
:102A000000E00020704700002DE9F04786B0054641
:102A10000E460024A24600BF00BF0027B08900B1C7
:102A200000BF2F462C8A4CF6FF700440F088044308
:102A30002C82AC894EF6F3100440B08831890843EB
:102A4000718908430443AC81AC8A4FF6FF400440CF
:102A5000B0890443AC8201A8FFF7EEFC114887421D
:102A600002D1DDF810A001E0DDF80CA00AEBCA00ED
:102A700000EB0A1031688900B0FBF1F86420B8FB64
:102A8000F0F004012009642101FB1089322000EBE1
:102A90000910B0FBF1F000F00F0004432C8106B0E8
:102AA000BDE8F0870038014001468888C0F308007F
:102AB0007047C1F308028280704700BFFEE7000044
:102AC0000FB4054B10B503A9044A029800F01CF896
:102AD00010BC5DF814FB0000C93800085801002044
:102AE000004870475C01002002E008C8121F08C1BE
:102AF000002AFAD170477047002001E001C1121F7F
:102B0000002AFBD1704700002DE9FF4F8DB005462C
:102B10000F460026EEE1252879D100246D1CF94AE4
:102B2000A246A14601212B78203B01FA03F0104276
:102B300002D004436D1CF6E728782A2810D06FF0E5
:102B40002F022878A0F13001092915D80AEB8A0153
:102B500002EB410144F0020400EB010A6D1CF0E7B6
:102B600057F804ABBAF1000F03DA44F40054CAF189
:102B7000000A44F002046D1C28782E2817D115F89D
:102B8000010F44F004042A280ED06FF02F02287899
:102B9000A0F1300109290AD809EB890102EB4101B2
:102BA00000EB01096D1CF2E757F8049B6D1C2878B7
:102BB0006C280FD006DC4C2817D068280DD06A2866
:102BC00014D104E0742810D07A280FD10DE044F419
:102BD00000140AE044F4801401E044F440146978DD
:102BE000814202D16D1C04F580146D1C95F800C063
:102BF000BCF16E0F2AD012DCBCF1630F3CD007DCB5
:102C0000BCF1000F76D0BCF1580F19D1ACE018E040
:102C1000BCF1640F6FD0BCF1690F11D16BE0BCF156
:102C2000730F32D006DCBCF16F0F71D0BCF1700FA6
:102C300006D19BE0BCF1750F6BD0BCF1780F69D069
:102C40006046DDE90F129047761C52E1C4F3025052
:102C5000022806D003280AD0042801CF0AD0066033
:102C600047E101CF4FEAE671C0E9006141E101CFE0
:102C700006803EE106703CE101CF8DF800000020A7
:102C80008DF80100EB46012003E057F804BB4FF03C
:102C9000FF3061074FF0000102D40DE008F101019F
:102CA000884649450FDA8045F8DB1BF808100029F3
:102CB000F4D108E008F1010188468142FADB1BF8F3
:102CC00008100029F6D1DDE90F23AAEB08008146A0
:102CD000214600F040F9304400EB080604E0DDE94D
:102CE0000F121BF8010B9047B8F10108F7D22146EB
:102CF0004846F9E002E10A20C4F302524FF0000B0B
:102D00000890022A07D001CFC117032A09D00AE090
:102D100035E022E023E0FF1D27F00707F7E8020176
:102D200005E000B2C117042A01D140B2C117002941
:102D300006DA0023D0EB030063EB01012D2202E051
:102D4000220504D52B228DF82420012203E0E2077E
:102D500001D02022F7E7904653E00A2110E010202E
:102D60004FF0000B08900EE0102109E010214FF009
:102D7000000B44F004044FF00809089103E0082117
:102D80004FF0000B0891C4F30252022A04D001CF85
:102D90000021032A06D007E0FF1D27F00707F7E808
:102DA000020105E080B20021042A01D1C0B2002155
:102DB0004FF00008220724D5BCF1700F2AD0089BE1
:102DC00083F0100353EA0B0309D150EA010206D045
:102DD00030228DF824208DF825C002229046089BD1
:102DE00083F0080353EA0B030BD150EA010201D12F
:102DF000620706D530228DF824204FF00108A9F192
:102E0000010941A2BCF1580F00D044A20B9208AABC
:102E10000A920FE040228DF824200122DEE75B4673
:102E2000089AFDF7A6FA0B9B9B5C0A9AA2F1010295
:102E30000A92137050EA0102F1D10A98ADEB00003A
:102E400000F1200B600702D524F4803401E04FF03C
:102E50000109002049465A46D94501DDA1EB02008F
:102E600000EB0B0141440890AAEB01000B90E0033A
:102E700006D4DDE90F2321460B9800F06CF80644D8
:102E80004FF000090DF1240A07E0DDE90F121AF8EE
:102E900009009047761C09F10109C145F5DBE00303
:102EA0000CD5DDE90F2321460B9800F054F80644B9
:102EB00004E0DDE90F1230209047761C0899481E87
:102EC00008900029F5DC08E00A980A990078491C66
:102ED0000A91DDE90F129047761CBBF10001ABF1BE
:102EE000010BF1DC0B982146DDE90F2300F020F8FF
:102EF00006446D1C287800287FF40DAE11B03046D2
:102F0000BDE8F08F092801003031323334353637CF
:102F100038394142434445460000000030313233E5
:102F20003435363738396162636465660000000005
:102F30002DE9F0410446002517461E46880405D4B5
:102F400006E039462020B04705F10105641EF8D59A
:102F50002846BDE8F0812DE9F041044600253027E0
:102F600090461E46C80300D42027880405D506E0F5
:102F700041463846B04705F10105641EF8D528469C
:102F8000BDE8F08138B5154800F0D6FC009006F099
:102F9000F9FA134908604FF4404269461048006846
:102FA00006F0F0F900221146104602F093FB0446A9
:102FB00021460B48006806F0F6FA04220949084841
:102FC000006806F075F9002207490548006806F018
:102FD000E7FA204602F084FD38BD00009C14A8C02A
:102FE0005C0000200CAA0008259300082DE9FC478E
:102FF00006468946174600BF1EB900BF00BFBDE8A0
:10300000FC8700BF78892A2803D2384602F068FD81
:10301000F5E77C68012000F09CFCE189884214D12E
:1030200040F2046000F095FC618A88420DD14FF4B3
:10303000006000F08EFC218A884206D140F606002E
:1030400000F087FCA189884203D0384602F048FD91
:10305000D5E7E0690190D4F826000090706810B9B7
:103060004FF0000808E000987168884201D1012003
:1030700000E0002000F0FF08B8F1000F07D00123A6
:1030800004F1160201A9304606F018FB06E0002301
:1030900004F1160201A9304606F010FBA08A00F0E8
:1030A00058FC012802D0022833D131E0B8F1000FDA
:1030B0002CD0022000F04DFCA082E069C4F826006C
:1030C0007068E06100BF96F82000062801D000BFBC
:1030D00000BF00BF062512E0681EC5B204F116004D
:1030E000415D0A3041550A38405D605519F80510B8
:1030F00004F11600415519F80510A01D4155002D89
:10310000EADC39463046B269904700E000BF01E092
:1031100000E000BF00BF384602F0E2FC00BF6EE7EF
:1031200070B504460E4600BF14B900BF00BF70BDA5
:1031300000BF7568D5F81A00A1680840D4E90112EB
:103140001140884200D0F2E70023AA1D05F11A01C0
:10315000204606F0B3FA00BFE9E700002DE9FC4184
:1031600004460E4615460E21304602F005FD18B104
:103170006FF00100BDE8FC8100272146284600F0E1
:103180003BFD08B1254F40E04FF0704002F096FA49
:10319000296800EA01084FF0604002F08FFA80458C
:1031A0001DD101208DF8000000208DF801005E2067
:1031B0008DF80200286802F081FAC0F306408DF80D
:1031C0000300286802F07AFA000A8DF804002868E3
:1031D00002F074FAC0B28DF805006F4615E0286859
:1031E000A1680840D4E901121140884207D0E06884
:1031F00010B104F10C0502E06FF00300BAE73246AB
:103200002946204600F00CF8B4E73B4604F12102C1
:103210003146204600F05CF9ACE7000014AA000833
:103220002DE9F84F81460F46164609F1210A4FF065
:10323000FF3000904946384600F0DEFC78B94FF088
:10324000704002F03BFA396800EA01054FF0604037
:1032500002F034FA854202D00FB1386818B96FF025
:103260000900BDE8F88F0121384600F02BFA04462A
:10327000002C01DA2046F4E704EB8400554901EB09
:103280008000807B30B9012004EB8401514A02EBBD
:103290008101887300BF04EB84004E4901EB80007C
:1032A000807B012808D004EB840001EB8000807B48
:1032B000022801D000BF00BF00BF04EB84004549D5
:1032C00001EB8000807B012800D02EB939464846AA
:1032D00000F0E8F8009000BF002E79D004EB8400E5
:1032E0003C4901EB8000807B02280CD104EB840078
:1032F00001EB800000F1080352463146484600F0D9
:10330000E7F8009064E004EB8400324901EB8000B0
:10331000807B01285CD14FF0000B354610E000BFE8
:1033200068892989884203D1286808B100BF00BF95
:1033300000BF287B012802D04FF0010B02E02D686E
:10334000002DECD100BFBBF1000F10D02989002265
:10335000032002F0BFF905466DB13146284602F060
:1033600004FB40B1284602F0BBFB002503E03546D4
:10337000284602F09FFC55B3062001F051FD80461F
:10338000B8F1000F1FD00020C8F80000C8F80450A2
:1033900004EB84000F4951F8200060B104EB840174
:1033A0000C4A52F8210000E0006801680029FBD1B6
:1033B000C0F8008004E004EB8400064941F8208056
:1033C0000020009002E0284602F08AFB00BF00BF08
:1033D000009846E72CD300202DE9F84F0746884691
:1033E00091469A46DDF828B00020009000222A215C
:1033F000032002F06FF906461EB94FF0FF30BDE81A
:10340000F88F00BF70892A2801D200BF00BF00BF1B
:1034100074680D9800F09DFAA08200BF97F8200014
:10342000062801D000BF00BF00BF062512E0681EBD
:10343000C5B21AF8051004F1160041550B98415D0C
:1034400004F12000415519F80500605518F80510E1
:10345000A01D4155002DEADCDBF80000E0610C986E
:103460000068C4F82600012000F073FAE0814FF4F0
:10347000006000F06EFA208240F2046000F069FA09
:10348000608240F6060000F064FAA08131463846BA
:10349000BA6990470090304602F022FB002600985F
:1034A000ADE700007FB504460D4601230649201D07
:1034B0008DE82300039304F12103044A19462046B2
:1034C000FFF78AFF04B070BD1AAA000814AA00080A
:1034D0002DE9F04705460F46904699467E6800BFA5
:1034E00095F82000062801D000BF00BF00BF0624C9
:1034F00008E0601EC4B219F80400305518F8041032
:10350000B01D0155002CF4DC4FF4006000F021FAEE
:10351000B08139462846AA699047BDE8F087000087
:1035200010B5002446E004EB8400244901EB800040
:10353000C07B401C04EB8401204A02EB8101C8736C
:1035400004EB8400114601EB8000807B022806D149
:1035500004EB840001EB8000C07BF0280EDA04EB62
:103560008400164901EB8000807B012820D104EB08
:10357000840001EB8000C07B022819DB04EB84008F
:103580000E4951F8200060B104EB84010B4A52F857
:10359000210000F0AFF9002004EB8401074A42F853
:1035A0002100002004EB8401044A02EB81018873AE
:1035B000601CC4B20A2CB6DB10BD00002CD3002066
:1035C00070B504460D466668B08900F0C2F9B0F5E2
:1035D000006F04D0A0F5006006381FD117E0214627
:1035E0002846FFF79DFD6FF00D01204602F0C4FA5A
:1035F00040B100BF00BF00BF00BF204602F070FA1C
:10360000002403E02946204600F0C4FB0BE02246DC
:1036100005F121012846FFF7E9FC04E0204602F00D
:103620005FFA002400BF00BF002070BD70B50446E3
:1036300000BF0CB900BF00BF00BF082001F06CFA4A
:10364000054615B94FF0FF3070BDE561732084F871
:103650002B0074212C200155054860610548A061AC
:1036600004F121002860204600F094FF0020EBE7E1
:103670005D310008A146000870B50446204600F000
:10368000DBFF064616B94FF0FF3070BD21463046CD
:103690002269904705461DB1304602F021FA002606
:1036A0002846F2E710B5044600BF20210448FFF782
:1036B0009DF90028F9D00248FFF7F6F910BD000087
:1036C000003801402DE9FC5F05460F464FF00A081F
:1036D000C1460A260024A34600200190B24600906D
:1036E000CDB17748007800EB8000764901EB80008F
:1036F000807B02280FD128687149097801EB81018C
:10370000704A02EB81014968884204D16C48007814
:1037100040B2BDE8FC9F002473E00A2E08D104EB00
:103720008400684901EB8000807B08B966B266E0DE
:1037300004EB8400634901EB8000807B012836D1D3
:1037400065B1286804EB84015E4A02EB8101496897
:10375000884203D15A48047060B2DAE704EB84006F
:10376000584951F8200088B104EB840001EB800037
:10377000C17B0098814242DB4FFA84FA04EB84005B
:10378000504901EB8000C07B009038E004EB8400DE
:103790004C4901EB8000C07B584530DB4FFA84F880
:1037A00004EB840001EB800090F80FB027E004EBFD
:1037B0008400444901EB8000807B02281FD165B161
:1037C000286804EB84013F4A02EB81014968884282
:1037D00003D13B48047060B29BE704EB8400394995
:1037E00001EB8000C17B0198814208DB4FFA84F92C
:1037F00004EB8400334901EB8000C07B0190601C26
:10380000C4B20A2C89DB0A2E02D117F0010F02D0B4
:1038100017F0020F02D04FF0FF307AE70A2E01DADC
:10382000F4B22AE0B9F10A0F0BDA09F0FF0400BF85
:1038300004EB8400234951F8200008B100BF00BF09
:103840001BE0B8F10A0F02DA08F0FF0415E0BAF144
:103850000A0F0FDA0AF0FF0404EB8401194A52F848
:10386000210000F047F8002004EB8401154A42F8DB
:10387000210002E04FF0FF304BE700BF0A2C01DBD4
:1038800000BF00BF00BF002004EB84010D4A02EB23
:103890008101887345B105B900E0286804EB840113
:1038A000084A02EB81014860002004EB8401054ACC
:1038B00002EB8101C8730248047060B229E700007E
:1038C000520100202CD3002070B504460D46402143
:1038D0000748FFF78BF8E1B20548FFF7EAF800BFA9
:1038E00040210348FFF782F80028F9D0204670BD38
:1038F0000038014070B5044600BF0CB900BF00BFDE
:1039000000BF00BF606808B900BF00BF00BF0EE085
:103910002546246800BF686808B900BF00BF00BF23
:10392000686802F0DDF82946062001F031FA002C23
:10393000EED170BDFFF7B6BE0146080601F47F4226
:1039400040EA022001F47F0240EA122040EA1160BE
:1039500070470146C8B20A0A42EA0020704770B5B3
:1039600005460C4622460321284600F0CBF870BDE0
:103970002DE9FF5F054689466C68208801F0A4FEAA
:10398000C0F3032087007942284602F0F5F810B909
:103990002889042800D2ACE0686890F800A0BAF149
:1039A000080F7DD101264FF0704001F087FE21699C
:1039B00000EA010B4FF0604001F080FE834500D12A
:1039C0000026494604F1100000F016F900B1002667
:1039D00026B9284602F084F8BDE8FF9F2889082808
:1039E00000D286E0284600F0DCF818B1284602F044
:1039F00077F8F1E72221284602F0BEF880B3394675
:103A0000284602F0B9F820B100BF00BF00BF00BFD8
:103A100073E029890022022001F05CFE064606B907
:103A20006BE000BF718907F10800814201D200BF3D
:103A300000BF00BF2946304601F097FF20B100BF0C
:103A400000BF00BF00BF58E07468784201B2304642
:103A500002F092F828B100BF00BF00BF00BF4CE0E9
:103A600004E0284602F03CF835460AE06FF02101F8
:103A7000284602F081F820B100BF00BF00BF00BFA0
:103A80003BE0D5F80480E06803902069E06003988B
:103A90002061002088F80000A8F80200208900E0DA
:103AA00021E001F011FEC0B240F47F463046FFF73E
:103AB00050FF2081002060813946284602F05CF8E2
:103AC00018B100BF00BF00BF0CE001220021FF239E
:103AD0008DE806020A4604F10C01284600F040FA7F
:103AE000064600BF00E000BF00BF284601F0F8FF17
:103AF00072E7284601F0F4FF6EE7284601F0F0FF78
:103B000000BF69E72DE9FC4706460F4690460022B4
:103B10002421012001F0DEFD05460DB9BDE8FC873A
:103B200000BF6889242801D200BF00BF00BFD6F8BB
:103B300004906C68277084F801800020A080E080E9
:103B400071686A6802F108001C22FCF719FB00206A
:103B500060806989204600F01AF860800123002205
:103B6000CDE90023FF2309F10C020021284600F0D3
:103B7000DDF9284601F0B4FF00BFCFE770B5054678
:103B80000C4622460B212846FFF7BCFF70BD70B5DE
:103B900004460D462946204600F09CFDC04380B2F5
:103BA00070BD2DE9F041064600240027354617E098
:103BB0006989686800F08EFD0444A0B200EB1444EB
:103BC000688900EBD0714910B0EB410107D0C7F113
:103BD0000100C7B2E0B2C4F3072141EA00242D6816
:103BE000002DE5D127B1E0B2C4F3072141EA00245A
:103BF000E04380B2BDE8F08130B503461A68D04397
:103C000000D00AB9012030BD91F82A0010F0020F4F
:103C100001D10020F7E74868904201D10020F2E787
:103C200018688C682040D1E901452C40A04208D199
:103C3000886822EA00008D68EC43A04201D101208F
:103C4000E1E70020DFE700002DE9F74F86B0884666
:103C5000B8F8280004901420019002220021104698
:103C600001F038FD054625B94FF0FF3009B0BDE839
:103C7000F08F049868812881454820F0030068602F
:103C80006C680698142241682046FCF779FAE088AF
:103C900001F01AFD0746C7F30C0B07F40050039020
:103CA00006980089143886B20499A1F11400C1174E
:103CB00000EB5171C1F3CF01059161E00498143814
:103CC000B04201DB012000E0002080B20290CBF383
:103CD0000C00039940EA0107029808B947F400571D
:103CE000029808B1304601E00598C0001FFA80FA3A
:103CF000524604F11401019B069801F0A4FE0199BB
:103D0000084480B201903846FFF723FEE0800AF1B4
:103D1000140080B2FFF71DFE608000206081142136
:103D20002046FFF734FF6081029828B106F11400A5
:103D300081B2284601F066FF00221146022001F000
:103D4000C9FC8146B9F1000F0DD02946484601F063
:103D5000F8FDD8F8143049464046089A9847484636
:103D600001F0BEFE05E0284601F0BAFE4FF0FF303C
:103D70007CE7A6EB0A0086B2059858441FFA80FB40
:103D8000002E9BD1284601F0ABFE00206EE700001C
:103D90004ECD00202DE9F04706460F467468208876
:103DA00001F092FC0421B1EB203F05D0304601F038
:103DB00097FE0020BDE8F087208801F085FCC0F365
:103DC00003294FEA8909608801F07EFC80467089EA
:103DD000484502DB3089404504DA304601F080FE78
:103DE0000020E7E74146304601F00CFF4FF0010AA2
:103DF0003D4600BF284601F0E3FB70B1281D0CD002
:103E0000686850B120696968884205D0294604F184
:103E10001000FFF7F1FE00B10DE0BAF1000F04D081
:103E20004FF0000A3E48056800E02D68BD4200D111
:103E30002D68002DDED100BF394604F10C00FFF7DC
:103E4000DBFE60B94FF0704001F038FCE16800EA39
:103E5000010A4FF0604001F031FC824504D1304648
:103E600001F03EFE0020A5E725B9304601F038FEFE
:103E700000209FE743F6FF70FFF76BFDE1880842E3
:103E800007D0304600F0EEF806460EB9002091E764
:103E9000746824480760244804603946304602F0BC
:103EA00097FAA8BB208901F00FFCC0B201280DD001
:103EB000062806D011280ED13946304605F094FA6E
:103EC00025E03946304603F05BFA20E039463046BB
:103ED000FFF74EFD1BE0394604F11000FFF78CFEA2
:103EE00088B94FF0704001F0E9FB216900EA010A4E
:103EF0004FF0604001F0E2FB824504D07460022183
:103F00003046FFF72CFD304601F0EAFD00BF00BF50
:103F10000020044908600449086000BF4AE7000027
:103F20003401002044010020480100202DE9FE4F0B
:103F300005460E4614461F46DDE90C89204600F072
:103F400001FB5FEA000A02D1001FBDE8FE8F3B467D
:103F50002246314628468DE8000700F001F8F4E7D4
:103F60002DE9F05F05460F4690469A460C9EB8F143
:103F7000000F5FD04FF014091421284601F0FCFD1A
:103F800018B16FF00100BDE8F09F6C6800BF688950
:103F9000142801D200BF00BF00BF208901F094FBAC
:103FA0006AF31F208346FFF7D4FC2081208901F0AB
:103FB0008BFB01120B9840EA012B5846FFF7C9FC16
:103FC0002081B8F1000F01D1002001E0D8F80000F5
:103FD0002061CB464FEAE97109EB917189104FF4EA
:103FE000804242EA01210A9A114388B2FFF7B1FCEC
:103FF00020802889FFF7ADFC60800020E080184811
:104000000088FFF7A6FCA08015480088401C1449D2
:1040100008800FB1386828B9301D00D100E0706801
:10402000E06004E00FB9002000E03868E0600020A4
:10403000608102E06C6804F11008308D48B1288975
:10404000318D884205DD424631462846FFF7FCFDAA
:1040500099E74246294630467369984793E700003E
:10406000400100202DE9FC5F804600200090D8F838
:104070000450288801F028FBC0F303201421B1EB81
:10408000800F00D0AEE0E88801F01EFBC0044FEACC
:104090001049688801F018FB8346288801F014FB5A
:1040A000C0F30320ABEB800080B20190404601F0EA
:1040B00053FC06464E48018888190A280ADD314615
:1040C000284600F001FA20B14948008830440A2807
:1040D00000DD87E04748046812E06069E9688842CB
:1040E00009D1A0692969884205D1A089A988884297
:1040F00001D1012000E0002000B103E00094246819
:10410000002CEAD100BF34B93146284600F05CF9F2
:10411000044694B966E0E88801F0D6FAC004C00C01
:104120000BD1E08901F0D0FAC004C00C05D01422F4
:10413000294604F10800FCF723F82D480088304494
:104140002B490880E88801F0BFFA10F4005F06D11F
:10415000A07F40F00100A07701984844A083414629
:10416000204600F049F8D0B3A08B1430A0836068DB
:104170004068076860684568142204F10801284611
:10418000FBF7FEFFA08BFFF7E4FB68800020E880D0
:10419000688114212846FFF7FAFC6881D4F804806E
:1041A0000CE0D7F804A06FF01301384601F0E4FCEE
:1041B0003946404601F09DFBDAF80070002FF0D13F
:1041C0002046009900F0E6F8404601F0C5FB08499A
:1041D0000988081A064908804046BDE8FC9FFFE7A9
:1041E0000020FAE7404601F07BFC0020F5E70000E4
:1041F000500100204C0100202DE9FE4F06460F46DD
:10420000002501200090D7F804A0BAF8020001F0C0
:104210005BFA8346BAF8000001F056FAC0F30320B7
:10422000ABEB800080B20190BAF8060001F04CFAC6
:10423000C004000C029000BF00BF7C68002020601A
:104240000298A080DDE901100844E080D6F80490CF
:104250002EE0D9F80480A088B8F80410884210DA5B
:10426000C4F800905DB1A088E988884204DBE0884A
:10427000B8F80410884200DD7DE02F6000E0776030
:1042800019E0A088B8F80410884200D173E0A08833
:10429000B8F80610884200DA6DE035B1E888B8F861
:1042A0000410884201D000200090D8F800904546C4
:1042B000B9F1000FCDD100BFB9F1000F17D17DB119
:1042C00000BFE888A188884201DD00BF00BF00BFB1
:1042D0002F60E888A188884209D00020009006E07D
:1042E00000BF706808B100BF00BF00BF7760B07F3B
:1042F00010F0010F3DD00098C0B37068406880880E
:1043000010B10020009031E02546D4F800900BE079
:10431000D9F80440E888A188884202D000200090A3
:1043200005E02546D4F80090B9F1000FF0D100BFA8
:104330000098D8B100BF706808B900BF00BF00BFC7
:1043400000BF70684068A04201D100BF00BF00BF3D
:1043500000BF206808B100BF00BF00BF00BFE088F9
:10436000B18B884201D000BF00BF00BF0098BDE8FC
:10437000FE8F0020FBE7384601F0EEFA0449098879
:10438000081A03490880384601F0AAFB0020EEE72E
:104390005001002070B504460D460A480068A0424E
:1043A00003D108492068086006E000BF0DB900BFCE
:1043B00000BF00BF206828602146052000F0E8FC0F
:1043C00070BD00004C01002070B505460E4605206A
:1043D00000F026FD044664B93146284600F074F822
:1043E000B04203DB052000F01BFD04460CB90020A1
:1043F00070BD20212046FBF7DCFE0320E077064855
:1044000000682060044804601422294604F1080072
:10441000FBF7B6FE2046EBE74C0100202DE9F04704
:1044200004460F46002600BFA74201D100BF00BFCF
:1044300000BF37B100BF3868A04201D000BF00BF45
:1044400000BF6068D0F80480B8F80400A0B96568BF
:10445000D8F800006060142204F108016868FBF7D6
:104460008FFE01212846FFF789FB284601F074FAE8
:104470000644284601F034FB65680CE0D5F804805A
:10448000A946D8F80050484601F066FA0644484666
:1044900001F026FB00BF002DF0D139462046FFF782
:1044A00079FF00BF07480088B04201DA00BF00BFB3
:1044B00000BF04480088801B024908803046BDE8E0
:1044C000F0870000500100202DE9F05F0546894685
:1044D000002700BF0026B346B246194804681DE015
:1044E0006069E968884207D1A0692969884203D1D7
:1044F000A089A988884201D0012000E0002048B1AD
:104500000AF1010A0EB9264604E0E07FF17F8842F5
:1045100000DC2646206800B1A3462468002CDFD1C9
:104520002EB159463046FFF779FF804647444F4544
:1045300002DABAF1010FCDDC3846BDE8F09F000089
:104540004C01002070B50546104804680EE0204676
:1045500001F036F848B12868A1680840D4E9011292
:104560001140884201D1204670BD2468002CEED154
:104570000748006820B10648006801F021F808B932
:104580000020F1E702480068EEE700003401002057
:104590003801002070B50446062084F82000214828
:1045A000007884F821001F484178222001551D48D9
:1045B0008178232001551B48C178242001551948D2
:1045C000017925200155174841792620015540F2EF
:1045D000DC502085322084F82A0002221249134838
:1045E000FCF732FB042212491248FCF7E5FA0025D9
:1045F00006E0104901EB05100121FCF707FB6D1CDB
:10460000042DF6DB002507E0084901EB05104FF407
:104610004001FCF741FB6D1C022DF5DBFCF794FD1E
:1046200070BD0000D0000020942A0020B4120020A9
:10463000D4120020741200202DE9FE43814600268A
:1046400000256846FCF728FD009887B2DDF8048055
:1046500003223946104601F03DF8054665B12C4667
:1046600008E0628908EB06016068FBF789FD608954
:1046700006442468002CF4D14FF0004002990860F1
:104680000648406910F0800F04D08020034948613B
:10469000002088602846BDE8FE83000000900240AC
:1046A0002DE9F04180460E460025FCF715FB074634
:1046B000344607E0628978196168FBF761FD60891B
:1046C00005442468002CF5D1A8B2FCF79FFD00201A
:1046D000BDE8F0812DE9F04180460E4600244546B4
:1046E00008E0287807026D1C287807436D1C3C44BD
:1046F000B01E86B2012EF4DC002E02DD28780702FF
:104700003C44A0B200EB1444200C000402D0A0B240
:1047100000EB1444A0B2FFF71CF9BDE8F0810000E3
:10472000FEF7C0F8FEF71AF9FDF74EFDFEF72AFC7A
:10473000C4E06348006800287DD162A0FEF7C0F99C
:1047400066A0FEF7BDF96AA0FEF7BAF96EA0FEF703
:10475000B7F974A0FEF7B4F977A0FEF7B1F97CA021
:10476000FEF7AEF980A0FEF7ABF985A0FEF7A8F939
:1047700089A0FEF7A5F98FA0FEF7A2F992A0FEF797
:104780009FF994A0FEF79CF9954996A0FBF73CFD94
:10479000934800789449087008460078372803D079
:1047A00008460078382805D10120454908600020D6
:1047B0008E49086001208E49086000208D490860FC
:1047C000894801788CA0FEF77BF900208C490860AD
:1047D00045E0FCF7ABF800208A4908600AE08A4906
:1047E000874A1268885CFDF709F886480068401C13
:1047F00084490860834800680A28F0DB8348008801
:104800000A2190FBF1F0814908800846008840F6B3
:10481000E441484340F6FF71B0FBF1F4224678488A
:104820000168091D7AA0FEF74BF97848008840F628
:10483000E441484300E016E040F6FF71B0FBF1F4BC
:1048400022466F480168091D76A0FEF739F900205D
:104850006E4908806A480068401C694908606848D9
:1048600000680328B5DB00F0F9FA71480068714967
:10487000086000205F4908601EE0FEF70BF86D48F5
:10488000006800F5FA606A490968884207D2012089
:104890005849086068480078401C674908706648B5
:1048A00000780A2804D10020054908606249087090
:1048B0005048006800B100E0DFE700BF39E70000C2
:1048C0001400002009093C2D2D4D61696E204D65B5
:1048D0006E752D2D3E09090A0A0D000020312E09A2
:1048E000476574205374617475730A0D00000000ED
:1048F00020322E09537461727420537065656454BC
:104900006573740A0D00000020332E09476574207A
:104910005370656564546573745374617475730A78
:104920000D00000020342E0947657420506879522C
:104930006174650A0D00000020352E0953797374E7
:10494000656D20436F6D6D616E640A0D000000009F
:1049500020362E0953797374656D2047657450684D
:1049600079526174650A0D0020372E09476574205D
:10497000416C6C204D657373616765730A0D0000AF
:1049800020382E09536574204D61632041646472A0
:104990006573730A0D00000020392E09537461728B
:1049A00074204368616E6E656C457374696D6174E3
:1049B000650A0D0020612E094765742043494E5257
:1049C000204D61700A0D000020302E094578697471
:1049D0000A0D00000A0D09496E7075742D2D3E00F8
:1049E0006401002025730000300000201800002022
:1049F0000C000020100000202025630A0A0D000092
:104A00003400002038000020240000202200002074
:104A10000A0D504125643A20253464206D760A0D34
:104A2000000000002425642564206D760A0A0D002C
:104A300008000020280000200400002070B5044673
:104A400004B970BD00BF14F0030F01D000BF00BF58
:104A500000BF00BF14480068844203D313480068B5
:104A6000844201D300BF00BF00BF0F4800688442EA
:104A700003D30E480068844200D3E2E7A4F108059E
:104A800000BF287908B900BF00BF00BF002028710F
:104A900007480068854201D205480560284601F0B4
:104AA0000FF900BFCDE70000200100202401002005
:104AB0002801002000BF00BF124921F00301124A63
:104AC0001160114608684FF4A04101800021418027
:104AD00001711146096801F5A0410C4A11600121DC
:104AE000126811714FF4A041084A12681180074AF8
:104AF000126851800121064A117003490968054A6C
:104B0000116070478B360020200100202401002016
:104B10002C0100202801002070B502460AB90020AF
:104B200070BDD01C20F0030082B20C2A00DA0C22E7
:104B3000B2F5A04F01DD0020F2E740480068404E8A
:104B40003668801B83B272E03D480068C11808795E
:104B5000002869D10E8803F10800301A904263D30F
:104B60000E8803F10800361A02F11400864218D3A9
:104B700003F10800104485B2314800684419002050
:104B800020710888208063800D80012008712088B2
:104B9000B0F5A04F07D02088294E366830444580B4
:104BA00001E00120087125480068814220D107E01A
:104BB000224800680088224E366830441F4E30601C
:104BC0001E480068007928B11C4800681D4E3668F0
:104BD000B042EDD100BF194800681A4E3668B042A5
:104BE00005D016480068007908B100BF00BF00BFBB
:104BF00000BF01F108001044124E3668B04201D9DE
:104C000000BF00BF00BF00BF11F0030F01D000BF05
:104C100000BF00BF00BF11F0030F01D000BF00BFF5
:104C200000BF01F108007BE705480068C35AC2F5E0
:104C3000A040984288DC002072E700002801002094
:104C400020010020240100202DE9F04105460A46FC
:104C5000D01C20F0030082B20C2A00DA0C22B2F53C
:104C6000A04F02DD0020BDE8F08100BF454800688C
:104C7000854203D344480068854201D300BF00BF8A
:104C800000BF40480068854203D33F480068854222
:104C900001D32846E7E7A5F108043A480068201A3E
:104CA00086B22088801B083887B200BFBA4201DD77
:104CB00000BF00BF00BFBA4201DD0020D3E7BA4207
:104CC00001D12846CFE72088DFF8B8C0DCF800C063
:104CD00000EB0C01087980BB088806F1080C9444AD
:104CE0001FFA8CF3DFF8A4C0DCF800C08C4508D1B3
:104CF000DFF890C0DCF800C09C44DFF89080C8F872
:104D000000C0DFF880C0DCF800C00CEB03014FF0FE
:104D1000000C81F804C008804E802380B1F800C0E8
:104D2000BCF5A04F08D0B1F800C0DFF85880D8F823
:104D30000080C444ACF8023022E0FFE702F1140026
:104D4000B8421DD806F10800104483B20D4800682F
:104D5000C1180E480068814201D20C480160002051
:104D60000871208808804E8023800888B0F5A04F05
:104D700006D00888DFF80CC0DCF800C0604443802F
:104D8000284670E72001002024010020280100208F
:104D900001B9704700BF11F0030F01D000BF00BF81
:104DA00000BF0A46044B53F820301360024B43F80F
:104DB000202000BFEDE700009C86002010B50020F9
:104DC00001E0431C98B20928FBDB114B23F00301DF
:104DD000002019E000230F4C44F8203000220CE0A2
:104DE0000C4B53F820300B600A4B43F820100A4B51
:104DF00033F810301944531C9AB2084B33F8103072
:104E00009342EDDC431C98B20928E3DB10BD00009F
:104E1000C38600209C860020E8A90008FAA90008A3
:104E2000024600BF092A03DB00BF00BF0020704715
:104E300000BF094850F8221059B1074B086843F8E1
:104E4000220000BF11F0030F01D000BF00BF00BF60
:104E500000BF0846EBE700009C86002010B56248C2
:104E60000078362870D008DCA0F1300006286CD21B
:104E7000DFE800F00C13306B4D6C372876D0382803
:104E800075D0392874D061285FD1C6E257A0FDF7EC
:104E900017FE01205C490860DDE25C4800680028DC
:104EA00011D05BA0FDF70CFE604801F03AFC012830
:104EB00003D15FA0FDF704FE02E06BA0FDF700FE4A
:104EC00076A0FDF7FDFD5948FCF7EAFA00204F49AE
:104ED0000860C0E24D480068002811D079A0FDF7B5
:104EE000EFFD524801F066FD012803D17EA0FDF7D9
:104EF000E7FD02E08BA0FDF7E3FD98A0FDF7E0FDE4
:104F00004A48FCF7CDFA002040490860A3E23F4838
:104F10000068002811D09DA0FDF7D2FD434801F0A4
:104F2000F2FB012803D1A1A0FDF7CAFD02E0ACA06D
:104F3000FDF7C6FDB7A0FDF7C3FD3C48FCF7B0FA8E
:104F400000203249086086E220E079E22F480068BC
:104F5000002814D0BAA0FDF7B3FD344801F002FEDA
:104F6000012806D1BEA0FDF7ABFD05E02BE031E244
:104F700040E2C8A0FDF7A4FDD3A0FDF7A1FD2B489A
:104F8000FCF78EFA00202149086064E21F4800689F
:104F9000002811D0D7A0FDF793FD244801F058FD5B
:104FA000012803D1DBA0FDF78BFD02E0E7A0FDF7B0
:104FB00087FDF4A0FDF784FD1C48FCF771FA002082
:104FC0001249086047E21148006810B1F8A0FDF7E7
:104FD00077FD164801F020FB1448FCF761FA002029
:104FE0000A49086037E200003000002052657475FD
:104FF000726E20746F204D61696E204D656E752E46
:105000002E2E0A0A0D000000100000200C000020C7
:10501000526561647920746F2072756E20476574E3
:105020005374617475732E2E2E0A0D00F801002042
:1050300047657453746174757320435F4844504CE2
:10504000435F455854434D445F494620696E697437
:1050500069616C697A652073756365737366756CD5
:105060006C79210A0D0000004765745374617475F2
:105070007320435F4844504C435F455854434D446C
:105080005F494620696E697469616C697A6520665A
:1050900061696C6564210A0D00000000436F6D6D4D
:1050A000616E642047657453746174757320736511
:1050B0006E74207375636365737366756C6C7921A8
:1050C0000A0A0D00526561647920746F2072756E52
:1050D0002053746172745370656564546573742EE3
:1050E0002E2E0A0D00000000537461727453706517
:1050F00065645465737420435F4844504C435F4576
:105100005854434D445F494620696E697469616C27
:10511000697A652073756365737366756C6C792144
:105120000A0D0000537461727453706565645465B0
:10513000737420435F4844504C435F455854434D7B
:10514000445F494620696E697469616C697A6520BB
:105150006661696C6564210A0D000000436F6D6D26
:10516000616E642053746172745370656564546534
:1051700073742073656E74207375636365737366EF
:10518000756C6C79210A0A0D00000000526561649B
:105190007920746F2072756E20476574506879525B
:1051A0006174652E2E2E0A0D0000000047657450B4
:1051B000687952617465204558545F434D445F4996
:1051C0004620696E697469616C697A6564207375DB
:1051D000636365737366756C6C79210A0D0000005A
:1051E0004765745068795261746520435F48445044
:1051F0004C435F455854434D445F494620696E69AE
:105200007469616C697A65206661696C6564210AFC
:105210000D000000436F6D6D616E64204765745032
:105220006879526174652073656E74207375636369
:1052300065737366756C6C79210A0A0D00000000B5
:10524000526561647920746F2072756E2053797392
:1052500074656D436F6D6D616E642E2E2E0A0D00A8
:1052600053797374656D436D64204558545F434DA5
:10527000445F494620696E697469616C697A656446
:10528000207375636365737366756C6C79210A0DA1
:105290000000000053797374656D636D6420435F93
:1052A0004844504C435F455854434D445F49462061
:1052B000696E697469616C697A65206661696C659B
:1052C00064210A0D00000000436F6D6D616E642063
:1052D00053797374656D436F6D6D616E6420736592
:1052E0006E74207375636365737366756C6C792176
:1052F0000A0A0D00526561647920746F2072756E20
:1053000020537973476574506879526174652E2E05
:105310002E0A0D0053797347657450687952617491
:1053200065204558545F434D445F494620696E6986
:105330007469616C697A65642073756363657373FE
:1053400066756C6C79210A0D000000005379734773
:1053500065745068795261746520435F4844504CCD
:10536000435F455854434D445F494620696E697414
:1053700069616C697A65206661696C6564210A0DF2
:1053800000000000436F6D6D616E642053797347B8
:105390006574506879526174652073656E7420730A
:1053A00075636365737366756C6C79210A0A0D0009
:1053B000526561647920746F2072756E2047657440
:1053C000416C6C4D657373616765732E2E2E0A0DEB
:1053D000000000002148006810B121A0FDF770FB1B
:1053E000274801F0B1F92648FCF75AF800201B497C
:1053F000086030E01948006840B122A0FDF760FB6A
:105400001F4801F0B3FA29A0FDF75AFB1C48FCF72E
:1054100047F80020114908601DE01048006840B1BD
:105420002FA0FDF74DFB164801F064F934A0FDF7FD
:1054300047FB1348FCF734F80020084908600AE0ED
:105440003BA0FDF73DFBAFF25C40FDF739FB0120CF
:105450004049086000BF00BF10BD00000C000020E4
:10546000526561647920746F2072756E2053657483
:105470004D6163416464726573732E2E2E0A0D00B4
:10548000F8010020526561647920746F2072756E96
:105490002053746172744368616E6E656C457374F9
:1054A000696D6174652E2E2E0A0D0000436F6D6DBF
:1054B000616E642053746172744368616E6E656CD2
:1054C000457374696D6174652073656E74207375BE
:1054D000636365737366756C6C79210A0A0D00004D
:1054E000526561647920746F2072756E204765740F
:1054F00043494E524D61702E2E2E0A0D00000000C1
:10550000436F6D6D616E642047657443494E524D23
:10551000617032546F32382073656E742073756316
:105520006365737366756C6C79210A0A0D0000005F
:10553000506C6561736520696E707574206E756D51
:1055400062657220636F72726563746C79210A0DF3
:1055500000000000100000202DE9F04704460D4631
:1055600016461F46DDE909A9DDF8208000206060AD
:10557000A060E06084F82A00C4F81C800E4800781F
:1055800084F82D000C480078401C0B490870C4F8C2
:1055900010903B4632462946204600F017F8204638
:1055A000D04710B10020BDE8F087044800682060B3
:1055B000024804602046F6E7300100203401002054
:1055C000014691F82A0000F0010070472DE9F041F2
:1055D00006460F4614461D463946304600F016F87A
:1055E0002146304600F04EF82946304600F008F8D3
:1055F000BDE8F081014908607047000038010020D3
:1056000009B9002200E00A68C26070472DE9F04144
:1056100007460D4628687968884201D1012000E0DC
:10562000002018BB154806680CE03068796888428D
:1056300007D1D6F80C800121304601F005FB464623
:1056400000E0F668002EF0D10D4804680CE054B17B
:10565000206840B120687968884204D10DB90020E3
:1056600000E028682060E468002CF0D10DB900202B
:1056700000E028687860BDE8F0810000EC000020C0
:10568000E800002009B9002200E00A688260704743
:1056900010B5044694F82A0010F0010F0DD114F84B
:1056A0002A0F40F00100207014F82A0910F0200F92
:1056B00003D0211D2046FDF7F5FE10BD00B50346C1
:1056C0001846FEF739F900BD00B503461846FEF747
:1056D00040F900BD2DE9F05F83460F469146002654
:1056E000BBF1000F09D0BBF1010F0AD0BBF1020FD3
:1056F0000BD0BBF1030F0DD10BE006F1140086B205
:1057000000BF06F1140086B200BF06F10E0086B29B
:1057100007E006E000BF00BF00BF00BF0020BDE8FB
:10572000F09F00BFB9F1000F7AD0B9F1010F78D026
:10573000B9F1020F76D0B9F1030F74D100BF082080
:10574000FFF76EFB044600BF0CB90020E7E784F8C2
:105750000C900020206006F110002044C01C20F0B6
:105760000300606000BF606810F0030F01D000BF4D
:1057700000BF00BF2781F01C20F0030040F2DC5185
:10578000081AB84201DD384605E0F01C20F003009D
:1057900040F2DC51081A608100BF618960680144F1
:1057A00004F2EC50814201D900BF00BF00BF00BF2E
:1057B000F01C20F0030040F2DC51081A002801DC44
:1057C00000BF00BF00BF0120E081A2466089A7EBB7
:1057D000000848E000BF0820FFF722FB054600BF95
:1057E00025B9204600F07CF9002098E785F80C9058
:1057F000002068732860CAF8005000BF4FF6FF70A1
:10580000804501DB00BF00BF00BFA5F808801FFA7C
:1058100088F040F2DC51884206DA1FFA88F005E091
:1058200025E049E049E057E040F2DC50688105F1AD
:105830001000686000BF686810F0030F01D000BF5F
:1058400000BF00BF00BF61896068014404F2EC50F2
:10585000814201D900BF00BF00BF0120E8816889F3
:10586000A8EB0008AA46B8F1000FB3DC3AE006F155
:10587000130121F00302F91C21F00301114488B245
:10588000FFF74AF904460CB9002048E704F110007C
:105890003044C01C20F00300606027816781002035
:1058A000206084F80C9000BF606810F0030F01D0F6
:1058B00000BF00BF00BF15E000BF0720FFF7B0FA30
:1058C00004460CB900202AE7002060602781678128
:1058D000206084F80C9005E000BF00BF00BF00BF4F
:1058E00000201CE700BF0120E081002060732046FB
:1058F00015E710B5024600BF02B111B900BF00BFE5
:1059000010BD00BF104604E003890C8923440381C5
:1059100000680368002BF7D100BF03894489A342C4
:1059200001D000BF00BF00BF00BF03680BB100BFC4
:1059300000BF00BF03890C8923440381016000BFBD
:10594000DEE730B505460C4621462846FFF7D1FF75
:10595000204600F0AFF930BD0146002002E0421CB5
:10596000D0B209680029FAD170472DE9F041044608
:105970000D460026002700BF24B11DB120892989CA
:10598000884205DA00BF00BF6FF00900BDE8F08172
:1059900000BF00BF00BF0CB900BF00BF00BF6089DF
:1059A000801B6989C91B884204DB6889C01B1FFAF8
:1059B00080F803E06089801B1FFA80F86A68D119BB
:1059C000626890194246FAF7DBFB06EB080086B2E4
:1059D00007EB080087B200BF6089B04201DA00BF60
:1059E00000BF00BF6089B04201D10026246800BF1B
:1059F0006889B84201DA00BF00BF00BF6889B842B9
:105A000001DC00272D6865B168892989884208D1A1
:105A100000BF286820B100BF00BF6FF00800B5E7E5
:105A200000BF64B160892189884208D100BF206825
:105A300020B100BF00BF6FF00800A7E700BF002D36
:105A4000A8D10020A2E72DE9F05F804689461646DE
:105A50001D464FF0000B00BFB8F1000F04D100BF8E
:105A600000BF0020BDE8F09F00BF00BFB9F1000FEC
:105A700003D100BF00BF0020F4E700BF4FF0000AD1
:105A8000B8F1000F02D0B9F1000F01D10020E9E711
:105A9000444620E035B16089A84203DC6089281AB9
:105AA00085B217E06089401B87B2B74200DD3746F8
:105AB0006268511909EB0A003A46FAF761FB0BEBF1
:105AC00007001FFA80FB0AEB07001FFA80FAF01BA1
:105AD00086B2002524680EB1002CDBD15846C1E700
